:020000040800F2
:10000000204B00200101000803530008B54E0008F2
:100010000153000871250008077100080000000066
:10002000000000000000000000000000D55800089B
:100030003F27000800000000D5550008D9580008E7
:100040001B0100081B0100081B0100081B01000820
:100050001B0100081B0100081B0100081B01000810
:100060001B0100081B0100081B010008E526000811
:100070001B010008F1260008FD26000809270008DA
:100080001B0100081B0100081B0100081B010008E0
:10009000957000081B0100081B0100081B010008E7
:1000A0001B0100081B0100081B0100081B010008C0
:1000B0001B0100081B0100081B0100081B010008B0
:1000C0001B0100081B0100081B0100081B010008A0
:1000D0001B0100086D5D00081B010008795D000828
:1000E0001B0100081B0100081B010008DFF80CD0F1
:1000F00001F05EFD00480047B1810008204B002060
:100100000648804706480047FEE7FEE7FEE7FEE7B1
:10011000FEE7FEE7FEE7FEE7FEE7FEE7955900088B
:10012000ED0000082DE9F04F4FF0000C4FF00003F8
:1001300001EB9C5EBEF90250BEF900400EF5806EE8
:10014000BEF90290BEF900800EF5806EBEF9027015
:10015000BEF900600EF5806EBEF902B0BEF900A0D7
:100160000EF5806ED044D944A8EB4A0AA9EB4B0B9C
:100170004FEAA4044FEAA50504EBA60405EBA70586
:10018000A4EB6606A5EB670704EBA80405EBA9053D
:10019000A4EB6808A5EB690906EBAB06A7EBAA0779
:1001A000A6EB6B0B07EB6A0A458020F8044B4780EF
:1001B00020F8046BA0F8029020F8048BA0F802A0AD
:1001C00020F804BB03F1010393FAA3FCB3F5807F8D
:1001D000AED1A0EB82014FF0100312090FF23410E0
:1001E00000F1000006B403EB430C6144A2F5803239
:1001F00002EB8332B1F90250B1F90040A1EB0301E7
:10020000B0F902B0B0F900A000F10400A5EB040EB3
:100210000EFB0BFC0AEB4B0E05FB0ACB04FB0ECAD4
:10022000B1F90250B1F90040A1EB0301B0F902901D
:10023000B0F9008000F10400A5EB040E0EFB09FCF0
:1002400008EB490E05FB08C904FB0EC8B1F90250C2
:10025000B1F90040A1EB0301B0F90270B0F9006000
:1002600000F10400A5EB040E0EFB07FC06EB470EA5
:1002700005FB06C704FB0EC6B1F90250B1F90040F8
:1002800001F10001D044D944A8EB4A0AA9EB4B0B79
:100290004FEAA4044FEAA50504EB264405EB2745E5
:1002A000A4EBE636A5EBE73704EB284405EB29453C
:1002B000A4EBE838A5EBE93906EB2B46A7EB2A4778
:1002C000A6EBEB3B07EBEA3A4D800C8019444F80DC
:1002D0000E801944A1F80290A1F800801944A1F8F9
:1002E00002A021F804BBB2F5803283DA03EB430CA1
:1002F0006144A2F101025FEA024E18BFA0EB0C00BC
:100300007FF476AF06BC4FEA830392087FF46AAFAE
:10031000BDE8F08F004000000040000000400000F9
:100320005DDD213BA3227E180000412D7EA5412DDD
:100330000000412D00C000405DDD82E75DDD213B16
:100340007EA5412D0040000000400000004000005C
:10035000AA2A94126B39460649327C0CA8118E23C6
:1003600049327C0CA3227E1821F77931AA2A9412F3
:10037000A8118E235DDD213BA3227E180000412DB4
:1003800095C6B13F461A2B1E58EE3735BEB4C53E52
:10039000A8118E235DDD213B63A97138DF089A28FF
:1003A000B7CDC53E7EA5412D0000412D00C00040C7
:1003B00063A92B1E21F77931BEB4C53EBEB47C0CB7
:1003C00058EE373561AC213B95C6BAF9BAE57138BC
:1003D0003BA737355DDD82E75DDD213B7EA5412D05
:1003E00021F766D756D53F3D3BA78E23A811C9CA32
:1003F000B7CDC53E61AC7E18AA2AC1C295C6B13F31
:10040000BEB47C0C00400000004000000040000032
:100410001E3BB504693E9201C83C2403EB356409D8
:10042000C83C24036B3946066C30060E1E3BB504EF
:10043000EB356409AA2A94126B39460649327C0CC2
:10044000AE240917AF37D607882E8D0F7E1E5D1B91
:10045000EB356409AA2A941224188C1F1E34F10A61
:10046000B3269015A8118E2349327C0CA3227E1846
:10047000140B60276C30060E7E1E5D1B7104FB2A78
:10048000882E8D0F461A2B1EC7FD5A2E9D2C121139
:10049000FE15E72021F77931AA2A9412A8118E239C
:1004A00087F05334B2281314480D202602EAE536AB
:1004B000B3269015DF089A289CE32B39AE24091740
:1004C0007104FB2A5DDD213BA3227E180000412D33
:1004D0004ED7C53C9320EF198FFB6C2F78D1153E7A
:1004E0007E1E5D1B21F77931E2CB0F3F641CC61CD9
:1004F000B8F2683395C6B13F461A2B1E58EE373511
:1005000097C1FB3F24188C1F02EAE536F0BCEC3F94
:10051000FE15E720BAE57138A6B8853FD5133D2210
:1005200082E1DB39BEB4C53EA8118E235DDD213BDF
:1005300040B1AF3D790FDA244DD9423C2EAE423C5A
:10054000480D202656D53F3D8EAB823A140B6027CE
:1005500078D1153E63A97138DF089A28B7CDC53E1A
:10056000B1A71236A906CE2915CA4F3F78A668331F
:100570007104FB2A95C6B13FBCA576303902212C07
:1005800038C3EC3F7EA5412D0000412D00C0004046
:10059000BCA5CE29C7FD5A2EF0BCEC3F78A620267C
:1005A0008FFB6C2F09BAB13FB1A73D2257F97630C6
:1005B0004DB74F3F63A92B1E21F77931BEB4C53E1D
:1005C0008EABEF19ECF474325EB2153E2EAE901580
:1005D000B8F268332DB03F3D40B1121187F053346B
:1005E0002EAE423CBEB47C0C58EE373561AC213B9C
:1005F000A6B8D6072BEC1236C8AADB39F0BC240308
:1006000002EAE53663A9713897C16EFEDCE7B037C0
:1006100034A8E53695C6BAF9BAE571383BA737353F
:10062000E2CB0FF59CE32B3978A6683378D173F0D1
:1006300082E1DB39EDA579314ED7EDEB6DDF823A02
:1006400099A56C2F5DDD82E75DDD213B7EA5412D07
:100650009CE33AE352DBB63B99A5FB2A02EA19DF99
:100660004DD9423CEDA59A2887F026DB4ED7C53CF4
:1006700078A6202621F766D756D53F3D3BA78E2387
:10068000C7FDDFD363D3AF3D34A8E720710494D016
:1006900078D1153E63A92B1E140B8CCD94CF723EDE
:1006A000C8AA5D1BA811C9CAB7CDC53E61AC7E18EA
:1006B000241850C8E2CB0F3F2EAE90157E1E25C6E3
:1006C00015CA4F3F2DB09412AE244AC451C8853F7D
:1006D0005EB28D0FAA2AC1C295C6B13FBEB47C0CD2
:1006E0006C308EC1E2C4D43F4DB76409EB35B1C064
:1006F00038C3EC3F09BA46061E3B2CC097C1FB3FEE
:10070000F0BC240300400000004000000040000056
:10071000D03E2E019B3F6500363FC9009A3D5B02EB
:10072000363FC900693E92015F3C8803D03E2E01EE
:100730009A3D5B021E3BB504693E9201C83C24030E
:10074000D939E205023EF701F43BED038E380E077E
:100750009A3D5B021E3BB5043F373908313DC0026C
:10076000463A7E05EB356409C83C24036B394606DE
:1007700092348E0A5F3C88038E380E073433B70BF1
:10078000F43BED03AF37D607D231DF0C8A3B51047F
:10079000CE369D086C30060E1E3BB504EB35640961
:1007A000022F2B0FB23A1A0505352B0A932D501044
:1007B000463A7E051E34F10A212C7311D939E2051F
:1007C0003433B70BAA2A94126B39460649327C0C93
:1007D0003129B413FD38AA065B31410DB327D21479
:1007E0008E380E076C30060E3226EE151F38720753
:1007F0007B2FCA0EAE240917AF37D607882E8D0F70
:10080000262321183F373908932D50109C21371982
:10081000CE369D089D2C12110E204B1A5D36010913
:10082000A42BD3117E1E5D1BEB356409AA2A9412FA
:10083000EB1C6C1C7835C709AF295413561B791D66
:1008400005352B0AB2281314BE19841E92348E0A61
:10085000B327D21424188C1F1E34F10AB326901526
:1008600088169120A933540BB1254C16EA14932114
:100870003433B70BAE2409174A139222BF321A0C35
:10088000A923C417A8118E2349327C0CA3227E18F9
:1008900005108824D231DF0C9C213719610E7E258A
:1008A0005B31410D9320EF19BB0C7126E430A40D90
:1008B000891FA71A140B60276C30060E7E1E5D1B65
:1008C0006D094C28F42F680E721D121CC4073529BF
:1008D0007B2FCA0E641CC61C1B061A2A022F2B0F64
:1008E000561B791D7104FB2A882E8D0F461A2B1E6C
:1008F000C702D82B0E2EEE0F3519DC1E1C01B22CB0
:10090000932D501024188C1F72FF882D182DB110B4
:1009100011173A20C7FD5A2E9D2C1211FE15E72003
:100920001DFC282F212C7311EA14932173FAF22F46
:10093000A42BD311D5133D22CAF8B830282B34127A
:10094000BF12E72221F77931AA2A9412A8118E2327
:1009500079F536322D2AF41291103524D2F3EF3284
:10096000AF295413790FDA242CF2A3333129B413AD
:10097000610E7E2587F05334B2281314480D2026CB
:10098000E3EEFF34332873142E0CC12641EDA53558
:10099000B327D214140B6027A1EB48363327311547
:1009A000FA09FE2702EAE536B3269015DF089A28F1
:1009B00065E87E373226EE15C4073529CBE61238B6
:1009C000B1254C16A906CE2932E5A1382F25AB1644
:1009D0008D05652A9CE32B39AE2409177104FB2A87
:1009E00008E2B0392B24661755038F2B77E0303A95
:1009F000A923C4173902212CE9DEAB3A262321189A
:100A00001C01B22C5DDD213BA3227E180000412D8C
:100A1000D5DB923B1F22DB18E4FECF2D4FDAFD3BE6
:100A20009C213719C7FD5A2ECDD8643C1721931944
:100A3000ABFCE42E4ED7C53C9320EF198FFB6C2FF7
:100A4000D3D5213D0E204B1A73FAF22F5CD4783D9A
:100A5000891FA71A57F97630E8D2C93D041F021B37
:100A60003CF8F93078D1153E7E1E5D1B21F77931B7
:100A70000CD05C3EF81DB81B06F6F831A5CE9D3EA5
:100A8000721D121CECF4743241CDD83EEB1C6C1C70
:100A9000D2F3EF32E2CB0F3F641CC61CB8F26833CE
:100AA00088CA403FDD1B201D9FF1DF3332C96B3FF9
:100AB000561B791D87F05334E1C7913FCE1AD31DE1
:100AC0006FEFC63495C6B13F461A2B1E58EE373528
:100AD0004EC5CC3FBE19841E41EDA5350CC4E13F87
:100AE0003519DC1E2BEC1236CFC2F13FAD18341F86
:100AF00016EB7D3697C1FB3F24188C1F02EAE536C2
:100B000065C000409B17E31FEFE84B3738BFFF3F3E
:100B100011173A20DCE7B03711BEF83F8816912054
:100B2000CBE61238F0BCEC3FFE15E720BAE5713891
:100B3000D4BBDB3F74153D21AAE4CF38BFBAC43F14
:100B4000EA1493219CE32B39AFB9A73F5F14E82146
:100B50008EE28439A6B8853FD5133D2282E1DB3988
:100B6000A2B75D3F4A13922277E0303AA5B6303FF4
:100B7000BF12E7226DDF823AAFB5FD3E34123B2350
:100B800064DED33ABEB4C53EA8118E235DDD213BA1
:100B9000D5B3883E1D11E22357DC6D3BF2B2453ED2
:100BA0009110352452DBB63B15B2FC3D051088246C
:100BB0004FDAFD3B40B1AF3D790FDA244DD9423CCD
:100BC00071B05B3DED0E2C254DD8853CA9AF033DA2
:100BD000610E7E254ED7C53CE8AEA53CD40DCF2591
:100BE00051D6033D2EAE423C480D202656D53F3D02
:100BF0007BADDA3BBB0C71265CD4783DD0AC6D3B51
:100C00002E0CC12663D3AF3D2BACFA3AA10B1127B2
:100C10006DD2E33D8EAB823A140B602778D1153E3E
:100C2000F8AA063A870AAF2785D0453E6AAA8439D2
:100C3000FA09FE2794CF723EE3A9FD386D094C28CE
:100C4000A5CE9D3E63A97138DF089A28B7CDC53E71
:100C5000EBA8E1375208E728CCCCEB3E7BA84B371A
:100C6000C4073529E2CB0F3F12A8B13636078129D8
:100C7000FBCA303FB1A71236A906CE2915CA4F3F8D
:100C800057A76E351B061A2A32C96B3F05A7C63413
:100C90008D05652A51C8853FBBA61934FF04B02ACB
:100CA00072C79C3F78A668337104FB2A95C6B13F92
:100CB0003EA6B232E303452BBAC5C43F0BA6F831BA
:100CC00055038F2BE2C4D43FE0A53931C702D82B9E
:100CD0000CC4E13FBCA576303902212C38C3EC3F6F
:100CE000A1A5AF2FAA016A2C66C2F53F8DA5E42EFF
:100CF0001C01B22C97C1FB3F81A5152E8E00FA2C4A
:100D0000CAC0FF3F7EA5412D0000412D00C000401C
:100D100081A56A2C72FF882D38BFFF3F8DA58F2BD0
:100D2000E4FECF2D73BEFB3FA1A5B02A56FE152EC3
:100D3000B0BDF53FBCA5CE29C7FD5A2EF0BCEC3F97
:100D4000E0A5E72839FD9F2E32BCE13F0BA6FE2728
:100D5000ABFCE42E77BBD43F3EA611271DFC282F09
:100D6000BFBAC43F78A620268FFB6C2F09BAB13FCB
:100D7000BBA62C2501FBAF2F56B99C3F05A73524F8
:100D800073FAF22FA6B8853F57A73B23E5F9343015
:100D9000F8B76B3FB1A73D2257F976304DB74F3FBB
:100DA00012A83D21CAF8B830A5B6303F7BA83A203A
:100DB0003CF8F93000B60F3FEBA8341FAEF73931DD
:100DC0005EB5EB3E63A92B1E21F77931BEB4C53E5B
:100DD000E3A9201D93F6B93122B49D3E6AAA121CE4
:100DE00006F6F83188B3723EF8AA021B79F536325E
:100DF000F2B2453E8EABEF19ECF474325EB2153EA2
:100E00002BACDB185FF4B232CDB1E33DD0ACC417EC
:100E1000D2F3EF3240B1AF3D7BADAB1645F32C338F
:100E2000B5B0783D2EAE9015B8F268332DB03F3D89
:100E3000E8AE73142CF2A333A9AF033DA9AF54134A
:100E40009FF1DF3328AFC53C71B0341213F1193470
:100E5000A9AE853C40B1121187F053342EAE423C0E
:100E600015B2EE0FFBEF8D34B6ADFD3BF2B2CA0EFC
:100E70006FEFC63441ADB63BD5B3A40DE3EEFF34FE
:100E8000D0AC6D3BBEB47C0C58EE373561AC213B29
:100E9000AFB5540BCCED6E35F6ABD33AA5B62B0AF5
:100EA00041EDA5358EAB823AA2B70109B6ECDC352F
:100EB00029AB303AA6B8D6072BEC1236C8AADB39D4
:100EC000AFB9AA06A1EB48366AAA8439BFBA7E0533
:100ED00016EB7D360FAA2B39D4BB51048CEAB13600
:100EE000B7A9CF38F0BC240302EAE53663A971380C
:100EF00011BEF70178E9183712A9123838BFC900B6
:100F0000EFE84B37C5A8B03765C09BFF65E87E3773
:100F10007BA84B3797C16EFEDCE7B03734A8E536C7
:100F2000CFC240FD53E7E137F1A77D360CC413FC77
:100F3000CBE61238B1A712364EC5E6FA42E6423881
:100F400074A7A53595C6BAF9BAE571383BA7373508
:100F5000E1C78EF832E5A13805A7C63432C963F778
:100F6000AAE4CF38D3A6533488CA39F623E4FD382F
:100F7000A4A6DF33E2CB0FF59CE32B3978A66833C8
:100F800041CDE6F315E3583950A6EF32A5CEBFF2B6
:100F90008EE284392CA674320CD098F108E2B03974
:100FA0000BA6F83178D173F082E1DB39EDA5793108
:100FB000E8D24FEFFCE0063AD3A5F9305CD42DEE31
:100FC00077E0303ABCA57630D3D50CEDF2DF593A54
:100FD000A9A5F22F4ED7EDEB6DDF823A99A56C2FC4
:100FE000CDD8CFEAE9DEAB3A8DA5E42E4FDAB4E9ED
:100FF00064DED33A85A55A2ED5DB9AE8E1DDFA3ACC
:101000007FA5CF2D5DDD82E75DDD213B7EA5412DF6
:10101000E9DE6DE6DADC473B7FA5B22C77E059E5E7
:1010200057DC6D3B85A5212C08E248E4D5DB923BDB
:101030008DA58F2B9CE33AE352DBB63B99A5FB2AA7
:1010400032E52DE2D1DADA3BA9A5652ACBE624E127
:101050004FDAFD3BBCA5CE2965E81DE0CED9203C8A
:10106000D3A5352902EA19DF4DD9423CEDA59A28CE
:10107000A1EB18DECDD8643C0BA6FE2741ED19DDAF
:101080004DD8853C2CA66027E3EE1EDCCDD7A53CD1
:1010900050A6C12687F026DB4ED7C53C78A6202671
:1010A0002CF231DACFD6E43CA4A67E25D2F33FD988
:1010B00051D6033DD3A6DA2479F551D8D3D5213DB5
:1010C00005A7352421F766D756D53F3D3BA78E238C
:1010D000CAF87FD6D8D45B3D74A7E72273FA9BD5B4
:1010E0005CD4783DB1A73D221DFCBBD4DFD3933D3A
:1010F000F1A79321C7FDDFD363D3AF3D34A8E72029
:1011000072FF06D3E8D2C93D7BA83A201C0131D238
:101110006DD2E33DC5A88C1FC70261D1F2D1FC3D61
:1011200012A9DC1E710494D078D1153E63A92B1E40
:101130001B06CCCFFED02D3EB7A9791DC40707CF23
:1011400085D0453E0FAAC61C6D0947CE0CD05C3E2B
:101150006AAA121C140B8CCD94CF723EC8AA5D1BD8
:10116000BB0CD4CC1CCF883E29ABA71A610E21CC76
:10117000A5CE9D3E8EABEF19051073CB2ECEB13EA2
:10118000F6AB3719A811C9CAB7CDC53E61AC7E18F8
:101190004A1324CA41CDD83ED0ACC417EA1483C93F
:1011A000CCCCEB3E41AD09178816E8C857CCFD3EC4
:1011B000B6AD4C16241850C8E2CB0F3F2EAE90159A
:1011C000BE19BEC76ECB203FA9AED214561B31C785
:1011D000FBCA303F28AF1314EB1CA8C688CA403F97
:1011E000A9AF54137E1E25C615CA4F3F2DB09412C9
:1011F0000E20A7C5A3C95D3FB5B0D3119C212DC555
:1012000032C96B3F40B112112623B9C4C1C8783F1F
:10121000CDB15010AE244AC451C8853F5EB28D0F87
:101220003226E0C3E1C7913FF2B2CA0EB3277BC3B7
:1012300072C79C3F88B3060E31291CC303C7A73F62
:1012400022B4410DAA2AC1C295C6B13FBEB47C0CDE
:10125000212C6DC227C6BB3F5EB5B70B932D1DC2B7
:10126000BAC5C43F00B6F10A022FD3C14EC5CC3F68
:10127000A5B62B0A6C308EC1E2C4D43F4DB76409C9
:10128000D2314FC176C4DB3FF8B79D08343315C166
:101290000CC4E13FA6B8D6079234E0C0A1C3E73F33
:1012A00056B90E07EB35B1C038C3EC3F09BA460654
:1012B0003F3788C0CFC2F13FBFBA7E058E3864C0C9
:1012C00066C2F53F77BBB504D93945C0FEC1F83FCA
:1012D00032BCED031E3B2CC097C1FB3FF0BC240386
:1012E0005F3C19C030C1FD3FB0BD5B029A3D0BC0F1
:1012F000CAC0FF3F73BE9201D03E03C065C000402C
:1013000038BFC900202A04DB203A21FA02F000216C
:10131000704721FA02F3D040C2F120029140084305
:10132000194670470649074A0868504343F2390294
:101330001044086040087047014908607047000089
:10134000D40100206D4EC64140EA01039B0703D043
:1013500009E008C9121F08C0042AFAD203E011F8F4
:10136000013B00F8013B521EF9D27047D2B201E0B6
:1013700000F8012B491EFBD270470022F6E710B59A
:1013800013460A4604461946FFF7F0FF204610BDF3
:1013900010B5044604E00B7800F8013B03B1491C8A
:1013A000521EF8D2204610BDF0B480EA0102D40FDC
:1013B0004200B2EB410F02D20246084611464A00F3
:1013C00042D0C30DDDB2C1F3C752AD1A202D35DABC
:1013D000C1F3160141F4000204B15242C5F12006E6
:1013E00002FA06F12A411044B3EBD05F23D0C4B116
:1013F000012DA0EBC35009DCF0BC4FF0004202EA23
:10140000C352DBB200F5000000F0BCBA400000F1AE
:10141000807000EBC350A0F1807040EAD1704900A9
:1014200009E0490841EAC071A0EBC35000F5000093
:10143000400800EBC350F0BC00F09BBA61420122AF
:1014400002EB4101001BF6E7F0BC704781F0004160
:10145000AAE780F00040A7E780EA010210B502F099
:101460000043400022D04A001FD0010E01EB126160
:10147000C0F35600C2F3560240F4000042F40002EA
:10148000A0FB022000047F39140400D0401C50EA65
:10149000124001D44000491EC2B20C0604EBD01029
:1014A000401C4008802A02D003E0002010BD20F03C
:1014B0000100002900DA0020184310BD30B480EA92
:1014C000010202F0004530F0004221F0004013D04C
:1014D00090B1C30DD40DC2F31601C0F31600E41A87
:1014E00041F4000140F400027D34914201D3641CB8
:1014F00000E04900002C02DA30BC002070474FF4B5
:1015000000000023914201D3891A034340084FEAA7
:101510004101F7D151B1914202D14FF0004105E0B4
:1015200002D24FF0010101E06FF0010103EBC45062
:10153000284430BC00F01DBA2DE9FE4F804681EAF8
:101540000300C00F0C46009021F0004123F000453D
:10155000B8EB0200A94105D24046214690461C4600
:101560000B46024623F00040104347D0270DC7F337
:101570000A00C3F30A510290401A019040286BDA26
:10158000C3F3130040F4801B0098924620B100235F
:10159000D2EB030A63EB0B0B01985946C0F14002F2
:1015A000504600F0C5F906460D4650465946019A88
:1015B00000F0CDF910EB08006141002487EA1152D8
:1015C00084EAE7731A4340D0009A62B3019A012A71
:1015D0004FEA075215DC001B61EB02014FF000429D
:1015E00002EA0752CDE90042001C41F58011324663
:1015F0002B4600F004FA03B0BDE8F08F40462146C8
:10160000F9E7001B61EB0201001C41F58013001893
:101610005B412018A2F5001747EB030140EAD570A3
:10162000B6196D4111E06D084FEA360645EAC075FE
:101630004FEA0752001B61EB0201001C41F58011CB
:1016400049084FEA30000019514132462B4603B099
:10165000BDE8F04F00F0C4B900980122400000231B
:10166000D0EB020263EBE073009821464FEAE0748E
:10167000B8EB000061EB0401E9E783F000435BE7AE
:1016800081F0004158E72DE9FE4F81EA030404F0A0
:10169000004421F0004100944FF0000B23F0004380
:1016A00050EA01045ED052EA03045BD0C3F30A544B
:1016B000C1F30A552C44A4F2F3340194A0FB025464
:1016C000C1F3130141F48011C3F3130343F48013F6
:1016D00001FB024400FB034E840A970A44EA81544A
:1016E00047EA8357A4FB076802958D0A05FB078527
:1016F0004FEA932C04FB0C542705029D4FEA065831
:1017000047EA1637B5EB08056EEB070C870E920E0D
:1017100047EA811742EA8312A7FB0201B6EB0B01ED
:1017200064EB00042B0D43EA0C335E1844EB1C50B1
:10173000DA465146E7FB0201C5F313044FEA0B33C7
:1017400043EA14534FEA0432019C43EA0603A4F12E
:101750000C040294009CCDE900B400F050F903B0F1
:10176000BDE8F08F00200146F9E72DE9F04D81EA50
:10177000030404F0004B21F0004514464FF0000A2A
:1017800023F0004150EA050220D054EA01021DD0A6
:10179000C5F30A570246C5F31303C1F31300C1F39F
:1017A0000A5640F4801543F48013A7EB0608101B7B
:1017B000D64608F2FD3873EB050002D308F10108A4
:1017C00001E092185B41B8F1000F03DA00200146F6
:1017D000BDE8F08D00204FF48011064684460EE0EF
:1017E000171B73EB050705D3121B63EB05030643B9
:1017F0004CEA010C49084FEA300092185B4150EA6C
:101800000107EDD152EA030012D082EA040083EA14
:101810000501084305D0101BAB4106D2012200236D
:1018200006E000224FF0004302E06FF00102531087
:101830001AEB06004CEB085110EB0A0041EB0B01D0
:10184000BDE8F04D00F0CCB8C10F80EAE07008446C
:10185000CA079623002100F095B89623002211466E
:1018600000F090B80EB5C10F80EAE0700844CA07D6
:10187000002140F233438DE80E000A460B4600F08B
:10188000BEF803B000BD0EB540F233410291002115
:10189000CDE900110A460B4600F0B1F803B000BDD7
:1018A000C1F30A5210B5C1F3130140F2FF3341F402
:1018B00080119A4201DA002010BD40F233439A426F
:1018C000A2F2334203DC5242FFF71CFD10BD9040F0
:1018D00010BD00F0004230F000400AD0C10D01F50B
:1018E0006071C0F3160042EA0151C208400711437B
:1018F000704700200146704701F0004330B421F0EA
:10190000004150EA010206D00A0DA2F56072C1F34F
:101910001301002A02DC30BC00207047440F44EA67
:10192000C104C100E01830BC00EBC25000F021B887
:10193000202A04DB203A00FA02F10020704791408F
:10194000C2F1200320FA03F3194390407047202A84
:1019500006DBCB17203A41FA02F043EAE07306E0D7
:1019600041FA02F3D040C2F12002914008431946E7
:1019700070470029A8BF7047401C490008BF20F0ED
:101980000100704710B4B0FA80FC00FA0CF050EA85
:10199000010404BF10BC704749B1CCF1200421FA06
:1019A00004F411FA0CF118BF012121430843A3EB01
:1019B0000C01CB1D4FEA00614FEA102042BF00200E
:1019C00010BC704700EBC35010440029A4BF10BCEA
:1019D0007047401C490008BF20F0010010BC704750
:1019E00010B5141E73F1000408DA401C41F1000127
:1019F00092185B411A4301D120F0010010BD2DE97E
:101A0000F04D92469B4611B1B1FA81F202E0B0FA74
:101A100080F220329046FFF78BFF04460F4640EAE3
:101A20000A0041EA0B0153465A46084313D01146B7
:101A300053EA010019D0C8F140025046FFF762FC9A
:101A400005460E46504659464246FFF771FF084389
:101A500005D0012004E020463946BDE8F08D002085
:101A6000054346EAE0762C4337430A986305E40AC7
:101A7000A0EB08000022FD0A44EA47540A3002D5D0
:101A800000200146E9E7010510196941DDE9084533
:101A900000196941BDE8F04DA2E770B521F000439F
:101AA00003430CD0C1F30A550024D5EB040564EBC5
:101AB0000403D617AD1AB34102DB0020014670BD06
:101AC000201841EB025170BD2DE9F041054621F08F
:101AD00000400C46284309D0C4F30A5040F2334179
:101AE000884205DD28462146BDE8F0812846FBE70F
:101AF00040F2FE31884210DC0CDB4FEA043040EA51
:101B0000155050EA053105D0104804F0004101435A
:101B10000020E9E700200146E6E7A0F23340464214
:101B2000C6F1400228462146FFF702FF07468846D5
:101B3000284621463246FFF7E5FB43463A46FFF783
:101B40004FFF3246BDE8F041FFF7F2BE0000F03F24
:101B500030B5041E71F1000404DB4FF00044404234
:101B600064EB0101141E73F1000405DB1C464FF009
:101B70000043524263EB04038B4208BF824230BDF4
:101B800030B5041E71F1000404DB4FF00044404204
:101B900064EB0101141E73F1000405DB1C464FF0D9
:101BA0000043524263EB0403994208BF904230BDA8
:101BB000064C074D06E0E06840F0010394E807009A
:101BC00098471034AC42F6D3FEF794FAD8DA0008FE
:101BD000F8DA00082DE9F04D00231A461B1A8A4155
:101BE00003DB00200146BDE8F08DC1F30A52C1F3CA
:101BF000130141F480154FF0000BD10702D10018FA
:101C00006D41521E0027044640F2FF11384601EB99
:101C1000620A3E468046024600204FF48011FFF7DC
:101C200071FBC2197141BB1846EB0100B4EB030C08
:101C300075EB000C04D3E41A65EB000517460E465D
:101C4000241908F101006D4180463428E3DDF919BB
:101C500046EB0600091BA84103D24FF0FF321346A2
:101C600001E0002213461BEB070046EB0A51BDE8DA
:101C7000F04DFFF7B5BE70B5C1F30A5201F0004553
:101C80000024C1F3130140F2FF3341F480119A4262
:101C900001DA002070BD40F233439A42A2F233428F
:101CA00003DC5242FFF72EFB00E090402C43F1D0C2
:101CB000404270BD70B58C1810F8015B15F0070339
:101CC00001D110F8013B2A1106D110F8012B03E0D5
:101CD00010F8016B01F8016B5B1EF9D12B0705D4DD
:101CE0000023521E0DD401F8013BFAE710F8013B26
:101CF000CB1A921C03E013F8015B01F8015B521E42
:101D0000F9D5A142D8D3002070BD70B50446006853
:101D10008168C943C9071BD1816821F00101816035
:101D200001F0CCFE05460EE001F0C8FE401B022883
:101D300009D9A06A40F01000A062E06A40F00100FA
:101D4000E062012070BD20688068C043C007EBD00E
:101D5000002070BD10B50146406A826A12F0500F33
:101D600005D0006A026BBDE8104008461047816A42
:101D700041F40071816201688968C1F34241072919
:101D80000CD1017B51B9816A21F480718162816A31
:101D9000C90403D4816A41F00101816201F062F952
:101DA00010BD10B5406A816A41F040018162C16A8C
:101DB00041F00401C16201F028FA10BD10B5406A7B
:101DC00001F022FA10BD0000F8B500260446009686
:101DD00000688168C943C90727D0816841F00101C3
:101DE0008160134813490068B0FBF1F000E0401E29
:101DF00000900028FBD101F061FE054610E001F0E3
:101E00005DFE401B02280BD9A06A40F01000A062C2
:101E1000E06A40F00100E06284F824600120F8BD2F
:101E200020688068C043C007E9D10020F8BD0000E9
:101E3000BC00002040420F002DE9F05FDFF880B3C6
:101E400000250BF592772C46DE4E97E1DE48405D8B
:101E5000DE4AB17E5054491CC9B2B1762E2804D056
:101E6000002849D00A28FCD087E1092944D350181A
:101E7000093805F067FF0222D549D64802F0D8FF9D
:101E8000F07E0028EDD00A2836D2DFE800F035EEEB
:101E9000EDC3A99B8A3605ECB08D20F40040B085D7
:101EA0001E20B07096F83200F070F08C20B9708D62
:101EB00010B1708DF0847485B07A000906F0A8FC2A
:101EC0003486BF4B0020483B59464FF07E5203F109
:101ED000600A03F1180903F13008B6F830C041F880
:101EE00020C043F820202AF8104049F8204048F844
:101EF0002040401C0628F0DB3EE1B08D20F400407D
:101F0000B085708E0A21B0FBF1F201FB1202F27073
:101F1000B0FBF1F0B0703486F0783071F078AA49F7
:101F200000EB4000503901EB40007063B078152899
:101F300002D0B078162802D14FF400603086708C41
:101F400010B1F08C28B106E0708D40B1708D7084B6
:101F500005E0708DF084B08C08B9708DB084748504
:101F6000022006F055FC09F029FC9549002048396B
:101F70005B464FF07E5901F1600201F1180C01F14E
:101F8000300AB6F8308043F8208041F8209022F8DB
:101F900010404CF820404AF82040401C0628F0DB56
:101FA000EAE0B0781F2807D0B0781E28708E4FEA7C
:101FB000900005D27084DFE0708E8008F0844DE0E0
:101FC000B084D9E0B0781E2805D096F83200824956
:101FD00009300870D0E0708EC0F1FA003085CBE097
:101FE000B08D20F40040B0851F20B070708E602846
:101FF00000D38020F071307E40F001003076F08C0C
:1020000020B9708D10B1708DF0847485022006F0B7
:10201000FFFBB1E0708E0B280AD2DFE800F0AD06BE
:102020000A0E3755575A63657100348605F00CFE69
:10203000A2E0348602F08AFF9EE0B0781F2808D024
:10204000B0781E28708D15D0E0B1708D70847485C5
:1020500092E0708D50B1708DF0847485307E40F0C8
:102060000100307688E071E059E06CE0F08C70851A
:10207000F484F3E710B1708DB084E8E7B08C70851C
:10208000B48479E0708C7085748475E0B0781E2813
:1020900072D2002000E0401C00EB4001795CFF2977
:1020A00002D05028F7DB67E0502865DAF178B27883
:1020B00000EB400001EBC20139544749097838442C
:1020C00041707179817057E0747555E00120707529
:1020D00052E0B08D20F40040B0851F20B070802009
:1020E000F071BBE73D4817E03D4802F072FC08F094
:1020F00071F83C4802F00AFF394802F059FC3BE015
:102100000020FF2200EB4001401C7A543944502843
:102110004A708A70F6DB344803F05DFA2CE0708E6A
:102120000028B08D0CD040F40040B085F48538789C
:10213000C108B17000F00700F070B87870711BE052
:1021400020F4004012E096F83200F7E7B0781E283D
:102150000ED01F2826D0B08D00F40040B085708EC0
:10216000B18DC0EB001001EB0010F030B08503E042
:1021700096F83200801C7072B4766D1C707E8542B9
:10218000FFF664AEB07E092190B1092800D9B4767B
:10219000B07EB0FBF1F201FB120038B1C0F10900D2
:1021A000707606E096F83200307257E7717600E0FC
:1021B0007176727EBDE8F05F0349064802F0E2BD29
:1021C0004037002000000020A0020020FE34002044
:1021D00028D40008A43A0020AF00002000FC00082A
:1021E000643A00206438002000F800082DE9FC5F04
:1021F000D64F388E401C80B23886DFF8549340F2B8
:102200007F31DFF850B309F11806884226D3002445
:102210003C86F87807287CD07878401CC0B278706B
:10222000012800D97C7009F0C9FAC94B0020183B7D
:102230004FF07E5C5946A3F1180AA3F13005B7F8B8
:10224000308049F8208045F820C026F810404AF830
:10225000201043F82040401C0628F0DB7879BE4D62
:1022600000287DD001287CD002287BD00428FCD017
:1022700000247A8C36F82400B849D1F8FC1107F014
:10228000B7FE06EB8400F98B40887A8C081A401E52
:1022900080B2E96F07F0ACFE641C032CE9DB00247C
:1022A000CA46B8465AF82410B8F830004646401AD4
:1022B000FFF7CAFADFF898920546A9F1180949F81C
:1022C0002400F08B4000FFF7C8FA01462846FFF7CC
:1022D000F5F8FFF7FEFA00224FF0804306F060FDAC
:1022E0004FF0C0429E4BFFF7CEF9F68B05460F46E6
:1022F0007000FFF7B2FA019059F82410A9F11809FB
:1023000059F824000090FFF7A7F80199FFF7D6F8D5
:1023100000E04BE0FFF7DDFA2A463B46FFF70CF9F9
:10232000FFF7EAFAA9F1180510F1FF4F45F824006C
:1023300014D3002045F824008A484F46009950F8ED
:102340002400FFF789F847F82400B8F830208649C0
:102350004AF82420884201DC47F824B0701E02E0CD
:1023600033E03FE04FE0FFF76FFA55F82410FFF736
:1023700073F8FFF7AEFA07F02DFDFFF791FA744FEF
:10238000183727F81400641C062C8BDB98F8011012
:10239000D8F834004646405C98F805106F4D052982
:1023A0007ED2DFE801F04755667E96003879401C02
:1023B000C0B23871062800D93C7138796B4900EBFE
:1023C000400001EB400078632DE700247A8C36F85A
:1023D00014006249D1F8FC1107F00AFE641C032CBA
:1023E000F4DB5CE70024F98B36F814007A8C081AC9
:1023F000401E80B25949D1F8FC1107F0F9FD641C68
:10240000032CF0DB4BE700247A8C36F81400534998
:10241000D1F8FC1107F0ECFD36F81400F98B7A8C3A
:10242000081A401E80B2E96F07F0E2FD641C032C1D
:10243000EADB34E7002405EB800537F81400728CE2
:10244000296807F0D5FD641C032CF6DBBDE8FC9F72
:10245000002405EB800537F81400F18B728C081A04
:10246000401E80B2296807F0C3FD641C032CF2DB18
:10247000ECE7002405EB800537F81400728C29681E
:1024800007F0B6FD37F81400F18B728C081A401E65
:1024900080B2296807F0ACFD641C032CECDBD5E7A7
:1024A00035E0002405EB800537F82400728C29689C
:1024B00007F09EFD07EB8400F18B4088728C081AB0
:1024C000401E80B2296807F093FD641C032CEBDBEF
:1024D000BCE70024706B728C005D05EB800137F85F
:1024E0001400096807F084FD706BF28B2044C078FB
:1024F00005EB800137F81400101A401E728C80B270
:10250000096807F075FD641C032CE3DB9EE70024DB
:10251000706B728C005D05EB800137F82400096850
:1025200007F066FD706BF28B2044C07805EB8001EC
:1025300007EB84004088101A401E728C80B2096834
:1025400007F056FD641C032CE2DB7FE7000000204F
:10255000403700208FC28D4080E9000800E8000865
:10256000B89E13C034D400080AD7233C5002002080
:10257000FEE70020704700207047000010B50022E1
:102580000449054803F0F0FC0449034803F0E6FC65
:10259000002010BDFC450020AC3B0020FC44002086
:1025A00070B50A6800260B4C0D46182A06D2014663
:1025B0002046FEF7EDFE2868265405E045202070F1
:1025C00072206070A070E670034803F0ABFC00203E
:1025D00070BD000038020020AC3B00200A460949CB
:1025E00010B5D1F8B812D1F8141209B1012010BDFC
:1025F0000146044803F0B8FCBDE81040014803F070
:1026000011BD0000AC3B00202DE9F041224E0246F6
:10261000204C00213046B51430F8113024F8113028
:10262000491CA942F8DB12B31C491D4A002031F8AD
:10263000023B977C00EB071704EB4707401CA7F809
:1026400000311028F3DB304602F0C5FF01F036F907
:10265000002734F8022B06EB47010023012001F08C
:10266000EBF878B101F0DEF80020BDE8F0810B490D
:102670003039002031F8022B24F81020401C182893
:10268000F8DBE0E77F1CBFB2AF42E2D301F0CAF84B
:102690000120EAE7AC0A002000F4000880020020D4
:1026A0000000002070B50E4E0546304602F093FF44
:1026B00001F004F9002404CD06EB8401002302207C
:1026C00001F0BAF818B101F0ADF8002070BD641C3B
:1026D000A4B2802CEFD301F0A5F8012070BD00005A
:1026E00000E80008014800F037BF000084390020EE
:1026F000014800F031BF0000203A0020014800F0FE
:102700002BBF0000683B0020014800F025BF0000FF
:10271000243B002030B590F840500124AC40C56BFC
:102720006C60046863604368102B036803D0996091
:102730000068C26030BD9A600068C16030BD7047FB
:102740002DE9F05FDFF86C829B4CD8F80000218EF9
:10275000081AFFF779F8A8F1180705463860E08BEA
:102760004000FFF77AF801462846FEF7A7FEFFF77C
:10277000B0F800224FF0804306F012FB4FF0C04249
:102780008E4BFEF780FF0546E08B0E4683464000E9
:10279000FFF763F83968183F824638688146FEF7CC
:1027A0005BFE5146FEF78AFEFFF793F82A46334652
:1027B000FEF7C2FEFFF7A0F8A7F118052860218EEA
:1027C000491C218610F1FF4F1DD37D494846FEF775
:1027D00043FE00213860B0F17C5F10DA7948386040
:1027E000208EB0F5806F0AD32186E078072828D0A4
:1027F0006078401CC0B26070012800D96170296007
:10280000218EC8F800105846FFF727F82968FEF710
:1028100023FEFFF75EF807F0DDFAFFF741F8654F9A
:102820001837388008F0CAFF6178606B6279465CBF
:10283000DFF89481062A7DD2DFE802F0AD12243B56
:10284000568A2079401CC0B22071062800D9217117
:1028500020795E4A00EB400002EB40006063CEE767
:10286000002508EB860608E0E08B628C401B401ECA
:1028700080B2316807F0BCFB6D1C3888A842F3DCDD
:10288000BDE8F09F002508EB86060DE0628CA8B23B
:10289000316807F0ADFBE08B628C401B401E80B2BC
:1028A000316807F0A5FB6D1C3888B5EB500FEDDBE8
:1028B000E6E7002508EB860611E0E08B628C05EB6D
:1028C000500080B2316807F093FBE08B628CC5EB5F
:1028D0005000401E80B2316807F08AFB6D1C3888BA
:1028E000B5EB500FE9DBCBE70025B9462AE0E08BDA
:1028F000628C05EB900008EB860780B2396807F020
:1029000077FBE08B628CC5EB9000401E80B239688B
:1029100007F06EFBE08B628C800800EB40002844DF
:1029200080B2396807F064FBE08B800800EB400060
:10293000401B00E02FE0401E628C80B2396807F037
:1029400057FB6D1CB9F80000B5EB900FCFDB97E794
:1029500039B100784146002508EB800801EB860676
:1029600014E04078F6E7E08B628C05EB500080B213
:10297000316807F03DFBE08B628CC5EB5000401ED8
:1029800080B2D8F8001007F033FB6D1C3888B5EB27
:10299000500FE8DB74E7002508EB860605E0628C43
:1029A000A8B2316807F024FB6D1C3888A842F6DC19
:1029B00066E700004037002000000020B89E13C0EA
:1029C0006666663F8FC28D4000E800085002002016
:1029D0002DE9F05FD94F388E401C80B23886F98BD4
:1029E0000026884200D33E86F87B401CC0B2F873B4
:1029F000102800D3FE737879DFF844B3D14D4FF03F
:102A000006094FF07E5A062844D2DFE800F003455D
:102A100089C8FEFD00243AE0F97B491CC9B2F9736C
:102A2000102900D3FE73FEF72EFF8046388E8946AC
:102A30002044FEF717FF5A46C34BFEF724FE4246DA
:102A40004B46FEF792FE07F0FFFCFEF755FF0146EE
:102A5000FEF702FD8046788CFEF7FFFE4146FEF74A
:102A6000FBFCFEF736FF07F0B5F9FEF719FF796BAF
:102A700082B2FB7B0878042B02D24878921C92B277
:102A800005EB8001A0B2096807F0B2FA641CF88B6C
:102A90008442C1DBBDE8F09F00243DE0F97B491C86
:102AA000C9B2F973102900D3FE73FEF7ECFE81461C
:102AB000388E88462044FEF7D5FE5A46A24BFEF7D4
:102AC000E2FD4A464346FEF750FE07F0BDFCFEF726
:102AD00013FF0146FEF7C0FC8046788CFEF7BDFE72
:102AE0004146FEF7B9FCFEF7F4FE07F073F9FEF776
:102AF000D7FE796B82B2FB7B0878042B02D2487830
:102B0000921C92B205EB8001F88B0968001B401EF5
:102B100080B207F06DFA641CF88B8442BEDBB9E723
:102B2000002438E0F97B491CC9B2F973102900D39D
:102B3000FE73FEF7A8FE8046388E89462044FEF7D5
:102B400091FE5A46804BFEF79EFD42464B46FEF7ED
:102B50000CFE07F079FCFEF7CFFE0146FEF77CFC89
:102B60008046788CFEF779FE4146FEF775FCFEF74D
:102B7000B0FE07F02FF9FEF793FE82B2F97B7F20BB
:102B8000042901D2786B407805EB8001A0B2096876
:102B900007F02EFA641CF88B8442C3DB7AE700242A
:102BA0003EE0F97B491CC9B2F973102900D3FE73CA
:102BB000FEF769FE8146388E88462044FEF752FEB5
:102BC0005A46614BFEF75FFD4A464346FEF7CDFD90
:102BD00007F03AFCFEF790FE0146FEF73DFC80460A
:102BE000788CFEF73AFE4146FEF736FCFEF771FEA2
:102BF00007F0F0F8FEF754FE82B2F97B7F2004293B
:102C000001D2786B407801E053E00DE0F98B091BAD
:102C1000491E8BB255F82010184607F0E9F9641CDC
:102C2000F88B8442BDDB35E70024B8463CE0FEF774
:102C30002AFE0646B8F830000F462044FEF712FE82
:102C40005A46414BFEF71FFD32463B46FEF78DFDCF
:102C500007F0FAFBFEF750FE0146FEF7FDFB94FB82
:102C6000F9F20646D8F8340009FB12410778891EAC
:102C7000022905D2477831465046FEF7E7FB064663
:102C8000B8F82200FEF7E9FD3146FEF7E5FBFEF756
:102C900020FE07F09FF8FEF703FE82B2A0B255F8BF
:102CA000271007F0A5F9641CB8F81E008442BEDBAB
:102CB000F0E60024B8463CE0FEF7E5FD0646B8F82D
:102CC00030000F462044FEF7CDFD5A461E4BFEF75E
:102CD000DAFC32463B46FEF748FD07F0B5FBFEF74F
:102CE0000BFE0146FEF7B8FB94FBF9F20646D8F856
:102CF000340009FB12410778491E042905D24778A0
:102D000031465046FEF7A2FB0646B8F82200FEF711
:102D1000A4FD3146FEF7A0FBFEF7DBFD07F05AF8F5
:102D2000FEF7BEFD82B2A0B255F8271007F060F999
:102D3000641CB8F81E008442BEDBABE60000002035
:102D40008B37328F00E80008FC211940FEE70000B5
:102D500006490020C8610648016941F0040101618B
:102D6000016941F040010161704700000047002007
:102D700000200240064A0021D16106490A6942F05A
:102D800002020A614861086940F04000086170472A
:102D90000047002000200240044B0022DA61044A70
:102DA000136943F00103136101807047004700205D
:102DB0000020024014490020CA68D306134A04D5F3
:102DC000D06940F00200D0611020CB685B0705D5C8
:102DD000D36943F00103D36140F00400CB69DB0702
:102DE00007D0D36943F00403D361CA6922F001021A
:102DF000CA61A0F58072013A01D0C8607047C86905
:102E000020F00100C8617047002002400047002008
:102E100070B5044600F052FE0546114E09E0601CF4
:102E200007D024B100F04AFE401BA04201D9032084
:102E300070BDF068C007F2D1F068800601D520208F
:102E4000F060F068C00605D4F069C00702D1F068F0
:102E5000400703D5FFF7AEFF012070BD002070BD15
:102E6000002002402DE9F04100243D4D264605207A
:102E700006F0EAFD35F81410814202DA25F81460F4
:102E800002E0081A25F81400641CF02CEFDBEF2098
:102E9000032205EB400131F8023C31F8041C0B44DD
:102EA0001944B1FBF2F125F81010401E0228F0DAA7
:102EB000FF2006F0C9FDFF27782812D20E2006F069
:102EC000C3FD0446FF21A02006F0B0FD35F8142014
:102ED00029461044FF2802DD21F8147001E021F892
:102EE00014000024DFF87C8030E0C4EB0410000103
:102EF00090FBFCF035F81000C0EB801202EBC01024
:102F0000B0FBF7F0C2B29006000E802A06D967F334
:102F1000070167F30F2160F317410CE0402A04D941
:102F200067F3070160F30F2103E060F3070166F325
:102F30000F2166F317415879C0070ED0ACEB04009F
:102F4000401E80B25A8C07F053F8641CB8F81EC0BB
:102F500043466445C9DBBDE8F081A0B2F2E700005A
:102F60001E33002000000020F8B50023009390F8E5
:102F700024201C46012A12D0012280F824204A680D
:102F80001F26072A0DD205686F6B521E02EB8202C4
:102F90009640B7430E68964037436F6319E00220AE
:102FA000F8BD05680D2A0AD22F6BD21F02EB8202F0
:102FB0009640B7430E68964037432F6309E0EF6AA7
:102FC0000D3A02EB82029640B7430E6896403743B3
:102FD000EF620A68072605680A2A0AD3EF680A3AE8
:102FE00002EB42029640B7438E6896403743EF604B
:102FF00008E02F6902EB42029640B7438E68964084
:1030000037432F610A68102A01D0112A20D1124DAE
:103010000268AA4217D195682D0219D4956845F423
:10302000000595600968102912D10C490C4A0968FD
:10303000B1FBF2F101EB8101490000E0491E009172
:103040000029FBD104E0816A41F020018162012363
:1030500080F824401846F8BD00240140BC00002040
:1030600040420F0070B55D4A0168914204D15C494D
:10307000CA6882F40042CA6000685A4988427DD119
:10308000594CA078594E1E2808D0207E40F00200EE
:103090002076607D4A15012834D092E05449002002
:1030A0004FF4806536F81020A2F2AA5292B241F88D
:1030B0002020401CA842F5DB4D492A4601F58050EE
:1030C000FDF730F829464B4804F0F4FF2A464749FB
:1030D000494800F06FF9E078012810D0A17C607CAD
:1030E00006F04AFB04F002FE207E20F0020020766B
:1030F000228CBDE870404149414801F07BBB012171
:103100000620EDE700210D46084636F81030A3F5FD
:10311000A063B43B00D55B42401C19440828F4DB93
:1031200015E08D4200DA0D4606EB400333F8103C03
:10313000A3F5A063B43B00D55B42C91A36F8103042
:10314000A3F5A063B43B00D55B421944401C9042F8
:10315000E7DB8D4200DA0D46E81705EB5070C3102F
:103160000021284D084635F82060401C314489B2C2
:103170004028F8DB8809B3F5FA7F00E02DE003DD95
:10318000C82801D2207B60B1217B002029B1217B9E
:10319000202910D2217B491C2173E17A40291AD2BF
:1031A00002E0207B401C0BE0E07A05EB8001401C34
:1031B000E0720B6005E0618D49B1618D61846085CD
:1031C0002073BDE8704009490B4800F0F3B8618CEA
:1031D00061856084F4E7E072E6E770BD0028014095
:1031E000001001400024014000000020AA0200203D
:1031F000AC0A0020AC1A002054390020AC2A002070
:10320000C839002064370020704770472DE9F0412D
:103210004FF00006040035467DD0A06A002728B98B
:10322000E76284F82470204600F07EF82046FEF71E
:103230006CFDA16AC90600D420B1A06A40F010005C
:10324000A06268E0A16A21F4885141F00201A16204
:103250006268E169237B0A4346EA43010A43A168A5
:103260004FF48076B14208D0012906D0002194F8AD
:1032700014C0BCF1010F02D00AE03146F7E7F3B108
:10328000A36A43F02003A362E36A43F00103E3620D
:103290002368D3F804C02CF4694C4CEA010CC3F841
:1032A00004C021688B68DFF874C003EA0C03134381
:1032B0008B60A168B1420BD0012909D00CE0DFF886
:1032C00060C0A3690CEB43330B4343F40061DFE7B9
:1032D000218A0D05A5F580152168CB6A23F47003BA
:1032E0002B43CB62216889680E4B1940914208D16B
:1032F000E762A16A21F0020141F00101A162BDE88B
:10330000F081A06A20F0020040F01000A062E06AA4
:1033100040F00100E0620120F1E70000FDF7E1FF6D
:1033200000E0FFFFFE0E1FFF70B586B000240646CA
:1033300000940194029403940068194988422CD1A6
:103340001849886940F400708861886900F4007049
:103350000490886940F0040088618869694600F03B
:10336000040004900320009001900F4800F0BAFA86
:103370000F4D0E48C5E900048020C5E90240400019
:1033800028618000C5E905042846EC6100F090F949
:1033900008B1FFF7DBFC35626E6206B070BD00005D
:1033A00000240140001002400008014008000240D3
:1033B000843900202DE9F047894604463B490068DE
:1033C0003B4F0E1D9046884201D0B84207D130686D
:1033D00010F4702F03D001252846BDE8F08794F83B
:1033E000240001280CD0012084F824002046FEF798
:1033F000EBFC05004FF0000104D084F82410EBE74B
:103400000220EAE7A06A40F60162904340F480702F
:10341000A0622068B84218D1326812F4702F14D01C
:10342000A06A40F48010A0623068400505D5A06A0B
:1034300020F4005040F48050A062A06AC0040AD575
:10344000E06A20F00600E06206E0A26A22F4801240
:10345000A2624068E9E7E16284F82410216A154815
:103460008862216A1448C862216A14480863216886
:103470006FF0020008602068816841F4807181600B
:10348000216843464A464C31206A00F03FF92068E3
:103490008168C1F342410729816803D041F480115A
:1034A000816099E741F4A001FAE70000002401409F
:1034B00000280140551D0008BD1D0008A31D00087F
:1034C00010B590F821100024022903D00421816353
:1034D00001243DE001680A6822F00E020A600168DA
:1034E0000A6822F001020A601A4A0168914201D179
:1034F000012121E0174A1432914201D110211BE031
:10350000144A2832914201D1891515E0114A3C3202
:10351000914201D189140FE00E4A5032914202D1FA
:103520004FF4803108E00B4A6432914202D14FF4EB
:10353000801101E04FF08071064A083A5160012184
:1035400080F82110002180F82010416B01B18847DC
:10355000204610BD080002402DE9F05FC16B0B68EA
:1035600001680A68046C4FF0040C0CFA04FC4A4D24
:10357000DFF828A14A4E4B4FDFF82CB1DFF82CE1E1
:103580001CEA030F2DD05FEA427C2AD50A68920616
:1035900003D40A6822F004020A600168A94201D13A
:1035A000042119E0514501D1402115E0B14202D179
:1035B0004FF4806110E0B94202D14FF480410BE03A
:1035C000594502D14FF4802106E0714502D14FF4F4
:1035D000800101E04FF080612F4A083A5160C16AD2
:1035E0003BE04FF0020808FA04F818EA030F4FF026
:1035F00000094FF0010C35D05FEA827832D50A68B5
:10360000920605D40A6822F00A020A6080F821C0F6
:103610000168A94201D1022119E0514501D12021BF
:1036200015E0B14202D14FF4007110E0B94202D16D
:103630004FF400510BE0594502D14FF4003106E040
:10364000714502D14FF4001101E04FF00071124AB0
:10365000083A516080F82090816A00291AD0BDE8AC
:10366000F05F08470825A5401D4213D0120711D569
:103670000A6822F00E020A6090F84010C26B0CFA41
:1036800001F15160C0F838C080F821C080F8209066
:10369000016BE2E7BDE8F09F080002401C00024019
:1036A0003000024044000240580002406C000240DA
:1036B00030B528B302C8134A14230A44B2FBF3F20C
:1036C0009200C263104A8263022242770B6843F67B
:1036D000F0729343D0E900242243D0E902452C4301
:1036E00022430469224344692243846922431A43E2
:1036F0000A6000214163012242770177084630BD0C
:10370000012030BDF8FFFDBF0000024070B5044647
:1037100090F82000002501280CD0012084F820001A
:1037200094F821600020012E06D084F820000225A4
:10373000284670BD022070BD022684F82160A06377
:103740002068066826F0010606602046FEF7E2FFC4
:10375000E06A00282068016802D041F00E0106E00E
:1037600021F0040101602068016841F00A01016054
:103770002068016841F001010160D9E72DE9F047B7
:10378000054626480F460126017E01290FD001215A
:10379000814601762868DFF888804CF25034022890
:1037A00008D0A2462046FFF733FBA8B131E0022043
:1037B000BDE8F0872046FFF72BFB08BB0120FFF791
:1037C000C7FA2046FFF724FBD8F81010064621F070
:1037D0000401C8F810101CE04FF0FF303860AC68EE
:1037E00011E02046FFF7C6FA5046FFF711FBD8F864
:1037F0001010060021F00201C8F8101001D03C6042
:1038000007E004F58064D5E9020100EB8120A042C5
:10381000E7D8002189F818103046C9E70047002092
:10382000002002400348016941F08001016100204D
:1038300070470000002002402DE9F05F05461D485A
:1038400088460024017E16461F46012909D0012121
:10385000814601764CF2503A5046FFF7D9FA18B13A
:1038600023E00220BDE8F09F012D02D0022D00D000
:103870000425D346DFF840A015E022013046394642
:10388000FDF740FD81B208EB4400FFF785FA58468A
:10389000FFF7BEFADAF8102022F00102CAF8102071
:1038A00018B9641CE4B2AC42E7D3002289F81820AE
:1038B000D8E7000000470020002002400649002011
:1038C0000A69120607D5054A4A60054A4A6009692D
:1038D000090600D5012070470020024023016745FA
:1038E000AB89EFCD2DE9F84FDFF8A491002409F161
:1038F000040A0AF1040B23464FF00F080BF1040EE3
:10390000BEE00127A7403A40BA4272D1DFF884C135
:103910004D68A5EB0C0665452BD00DDC032D34D08E
:1039200005DC35B3012D19D0022D2FD11BE0112D4F
:1039300016D0122D2AD119E0B6F5881F19D006DC51
:10394000B6F5803F15D0B6F5801F1FD111E0B6F552
:10395000001F0ED0B6F5041F18D10AE0CB6815E0A1
:10396000CB681B1D12E0CB6808330FE0CB680C332B
:103970000CE08B682BB1012B4FF0080303D047619B
:1039800004E0042302E0076100E00023FF2A01D8DD
:10399000064601E000F104064FEA840501D9A5F1CD
:1039A0002005376808FA05FC27EA0C0703FA05F535
:1039B00047EA050737604D68ED0060D5364DAE69C2
:1039C00046F00106AE61AD6924F0030605F001057D
:1039D0000095324D7719BE68A5072D0F08FA05FC32
:1039E00026EA0C06DFF8B8C0604503D14FF0000CA2
:1039F00017E044E0DFF8ACC0604502D14FF0010CA5
:103A00000FE0DFF8A4C0604502D14FF0020C08E0DF
:103A1000DFF898C0604502D14FF0030C01E04FF091
:103A2000040C0CFA05FC4CEA060CC7F808C04D68FB
:103A3000D9F80060ED034D4601D5164300E09643EA
:103A40002E604D68DAF80060AD03554601D5164387
:103A500000E096432E604D68DBF80060ED025D46A5
:103A600001D5164300E096432E604D68DEF80060F5
:103A7000AD02754601D5164300E096432E60641CE6
:103A80000A6832FA04F57FF43CAFBDE8F88F000015
:103A9000000401400000111000100240000001402D
:103AA00000080140000C01400010014000140140DA
:103AB0000AB1016170470904FBE700000148806812
:103AC00070470000B000002002488168027811446D
:103AD00081607047B0000020074810B5016841F0D0
:103AE00010010160032000F075F8002000F006F8D6
:103AF00000F024F8002010BD0020024070B50D4DEC
:103B000004464FF47A712878B1FBF0F00A4909684D
:103B1000B1FBF0F000F0D6FE48B9102C07D200221D
:103B20002146501E00F036F800206C6070BD012068
:103B300070BD0000B0000020BC0000200C4808B59B
:103B4000816941F001018161816901F00101009108
:103B5000C16941F08051C161C069064900F08050DF
:103B60000090486820F0E06040F00070486008BDB8
:103B70000010024000000140002809DB00F01F0295
:103B8000012191404009800000F1E020C0F80011BF
:103B900070470000F0B40E4B1B68C3F30223C3F15F
:103BA0000704042C00D904241D1D072D01D2002375
:103BB00000E0DB1E012606FA04F56D1E0D409D4057
:103BC0009E40761E164045EA0601F0BC03F0DFBABF
:103BD0000CED00E0064A00F0070110684FF6FF0305
:103BE000184040EA01200349084310607047000074
:103BF0000CED00E00000FA0510B50C0605D501F04B
:103C0000070100EB4110283003E000EB411000F504
:103C1000947099B232B1012202730181190C418171
:103C2000002010BD00220273C180F9E7704700EB4D
:103C30004112D0F86802D26B02F0A3BB00EB411234
:103C4000D0F86802D2F83C2102F0FEBB70B5044601
:103C50000B0601F0070004EB40114FF001024FF09A
:103C6000000503D581F82920283103E081F8295186
:103C700001F59471087094F82802012808D084F89E
:103C80002822206803F03AF884F82852002070BDFA
:103C9000022070BD70B5044601F00F0062689042CA
:103CA00001D9012070BD0B0601F0070004EB4011A3
:103CB0004FF001024FF0000503D581F8292028318B
:103CC00003E081F8295101F594718D70087094F822
:103CD0002802012808D084F82822206803F0B2F8CE
:103CE00084F82852002070BD022070BD01F0070149
:103CF00000EB4110D0F8440170472DE9F041044633
:103D00000F0601F0070004EB40114FF001064FF0E1
:103D1000000503D581F82960283103E081F8295195
:103D200001F5947108700A61CB704A7802B1C881BC
:103D3000022B00D10D7194F82802012809D084F8D3
:103D40002862206802F090FE284684F82852BDE8D8
:103D5000F0810220FBE770B50D4601F0070400EB8F
:103D60004411C1E94F230022C1F8442181F82921DF
:103D700081F8284101F594716A07006803F0B5F8ED
:103D8000002070BD70B504460D4601F00700616863
:103D9000884201D9012070BD29064FF000064FF07E
:103DA000010205D504EB401181F82920283105E0F6
:103DB00004EB451181F8296101F594718A7008704E
:103DC00094F82802012807D084F82822206803F0FC
:103DD00073F8680702D006E0022070BD04F50C718C
:103DE000206803F02DF884F82862002070BD70B5BB
:103DF0000D4601F0070400EB4411C1E90F23002236
:103E00004A64012281F8292001F8284F6A070068D6
:103E100003F06BF8002070BD10B50446006803F095
:103E20003FF9000402D5204601F06CFA206803F047
:103E300037F940050CD5206830F8441F21F4806123
:103E40000180204600F0FAF80021204600F011F928
:103E5000206803F025F9400405D5206830F8441F98
:103E600021F480410180206803F01AF9800405D50F
:103E7000206830F8441F21F400510180206803F0CD
:103E80000FF9C00414D5206830F8401F21F0040158
:103E90000180206830F8401F21F008010180204691
:103EA00000F0DFF8206830F8441F21F480510180D1
:103EB000206803F0F5F800051FD5206830F8401F92
:103EC00041F008010180206830F8441F21F40061AE
:103ED0000180206830F8401F41F004010180206813
:103EE00003F0DEF8C00405D5206830F8441F21F443
:103EF00080510180204600F0F1F8206803F0D0F8EE
:103F0000800508D5206830F8441F21F40071018035
:103F1000204600F0AAF8206803F0C2F8C00505D5D5
:103F2000206830F8441F21F48071018010BD2DE914
:103F3000F04186B0040004D094F82902002520B195
:103F400008E0012006B0BDE8F08184F82852204640
:103F500000F056F8032084F82902206802F069FF77
:103F600004F11001142288466846FDF7EDF994E843
:103F70000F0002F0C1FE0227A8BB0021206803F059
:103F8000A7F8002101260CE004EB411080F829601D
:103F900000F8281FC181C57005614561491CC9B27F
:103FA000856160688842EFD800210FE004EB411082
:103FB00080F8295180F8281180F82B51C0F8385129
:103FC000C0F83C51491CC9B2C0F8405160688842F1
:103FD000ECD8142241466846FDF7B6F994E80F0084
:103FE00002F018FF10B184F82972AAE784F824506F
:103FF00084F82962206802F00BFF0020A2E700008D
:1040000008B500680B49884212D10B48C16941F4D8
:104010000001C161C069002200F400000090114657
:104020001420FFF7B7FDBDE808401420FFF7A4BD3A
:1040300008BD0000005C00400010024070B504465E
:1040400080680125022801D0FEF780FE2946D4F8B9
:10405000680202F0E0FAD4F86802BDE8704002F0AD
:104060009CBAD0F8680202F0C0BAD0F8680202F038
:10407000C6BA10B5044690F8280201280BD00120DA
:1040800084F8280284F82410206803F023F8002024
:1040900084F8280210BD022010BDD0F8682200F577
:1040A0000C71104602F0C3BA10B5044690F828020D
:1040B000012810D0012084F8280201462046FFF78D
:1040C000B5FD206802F0A2FE206802F0DCFF0020AF
:1040D00084F8280210BD022010BD000010B504466F
:1040E000D0F8680202F0E2FAA069002804D0034880
:1040F000016841F00601016010BD000010ED00E014
:104100002DE9F84304460078344FC00752D0F869CF
:104110000025C00008D4F86940F08050F861F869C3
:10412000012500F0805000902D480168C90511D488
:104130000168804641F480710160FFF7BFFC0646CC
:1041400004E0FFF7BBFC801B642822D8D8F80000ED
:10415000C005F6D5386A10F4407020D0A18801F46B
:10416000407181421BD0386A1E49012220F4407000
:104170000A6000220A603862C00710D0FFF79EFC78
:10418000064641F2883807E0FFF798FC811B41455D
:1041900002D90320BDE8F883386A8007F4D5386A6D
:1041A000616820F44070084338621DB1F86920F05E
:1041B0008050F8612078800705D57868A16820F4E0
:1041C0004040084378602078C00605D57868E168EB
:1041D00020F48000084378600020DBE700100240F4
:1041E00000700040400442422DE9F0470D460400B3
:1041F00067D0DFF81881D8F8000000F00700A84267
:104200000CD2D8F8001021F007012943C8F800109B
:10421000D8F8000000F00700A84252D120683C4EB8
:10422000810712D5400703D5706840F4E0607060E4
:104230002078000703D5706840F4605070607068A3
:10424000A16820F0F000084370602078C00727D0F4
:104250006068012810D03168022810D08907002931
:104260002FDA716821F0030101437160FFF726FC2A
:10427000074641F288390CE031688903EFE789018C
:10428000EDE7FFF71BFCC11B494502D90320BDE840
:10429000F0877068616800F00C00B0EB810FF0D11E
:1042A000D8F80010404601F00701A9420BD9016877
:1042B00021F0070129430160006800F00700A842CF
:1042C00001D00120E3E72078400705D57068E16858
:1042D00020F4E060084370602078000706D570681D
:1042E000216920F4605040EAC100706000F038F8A5
:1042F0007168084AC1F30311515CC840064908605F
:1043000006480068FFF7FAFB0020C0E700200240E3
:104310000010024009D90008BC000020B4000020B1
:104320000448054900684968044AC1F30221515C08
:10433000C8407047BC0000200010024019D9000896
:104340000448054900684968044AC1F3C221515C28
:10435000C8407047BC0000200010024019D9000876
:1043600012A085B00FC88DE80F0014A0144B006890
:1043700004905968134801F00C02042A10D0082A4E
:104380000ED1C1F38342C9031DF802000AD5596852
:1043900004AAC1F34041515C0A4A5043B0FBF1F01A
:1043A00005B0704708494843FAE7000002030405D6
:1043B000060708090A0B0C0D0E0F10100102000071
:1043C0000010024000127A0000093D002DE9F84F6C
:1043D00004006FD02078BE4DC00747D06868C0F396
:1043E0008100012807D06868C0F38100022809D144
:1043F0006868C00306D52868800337D56068002840
:10440000E7D033E06068B0F5803F0BD010B1B0F575
:10441000A02F11D0286820F480302860286820F46C
:10442000802002E0286840F480302860606888B10D
:10443000FFF744FB064609E0286840F48020286026
:10444000F0E7FFF73BFB801B642873D828688003E4
:10445000F7D50BE0FFF732FB064604E0FFF72EFB33
:10446000801B6428F1D828688003F7D42078DFF80F
:10447000648280074FF0010A4FF0000939D568685F
:1044800010F00C0F07D06868C0F38100022809D132
:104490006868C00306D42868800714D520690128FD
:1044A00008D110E02069B0B1C8F800A0FFF706FB02
:1044B000064605E007E1FFF701FB801B0228C4D890
:1044C00028688007F7D52868616920F0F80040EA7D
:1044D000C10028600DE0C8F80090FFF7EFFA06462B
:1044E00004E0FFF7EBFA801B022823D82868800736
:1044F000F7D4207800072CD57748A169D9B1C0F846
:1045000000A0FFF7DBFA064604E0FFF7D7FA801BAE
:1045100002280FD8686A8007F7D570484FF4FA511F
:104520000068B0FBF1F0009000BF0098411E0091C0
:10453000FAD20EE07CE0C0F80090FFF7BFFA064622
:1045400004E0FFF7BBFA801B022871D8686A800775
:10455000F7D4207840075BD5E8690027C00008D46D
:10456000E86940F08050E861E869012700F0805078
:1045700000905B480168C90511D40168834641F485
:1045800080710160FFF79AFA064604E0FFF796FA99
:10459000801B64284CD8DBF80000C005F6D5E06825
:1045A00001280AD008B1052813D0286A20F001009C
:1045B0002862286A20F0040002E0286A40F0010026
:1045C0002862E06841F2883B88B1FFF777FA064637
:1045D00009E0286A40F004002862EEE7FFF76EFA6F
:1045E000811B59455BD8286A8007F7D50BE0FFF798
:1045F00065FA064604E0FFF761FA811B59454ED87B
:10460000286A8007F7D41FB1E86920F08050E8617C
:10461000E069A8B36968C1F38101022946D0022884
:10462000484606D0C8F86000FFF748FA044639E06B
:1046300035E04746C8F86000FFF740FA064604E058
:10464000FFF73CFA801B022829D828688001F7D49C
:10465000206AB0F5803F05D16868A16820F4003079
:1046600008436860D4E908010843696821F47411BB
:1046700008436860C7F860A0FFF720FA044605E029
:1046800023E0FFF71BFA001B022808D828688001E6
:10469000F7D51AE0FFF712FA001B022802D903200F
:1046A000BDE8F88F28688001F4D40EE00128F7D027
:1046B0006868226A00F48031914204D1616A00F492
:1046C0007010884201D00120EAE70020E8E70000EE
:1046D000001002400000424280044242BC00002020
:1046E00000700040704770B5040005D00025A56239
:1046F00094F8510010B106E0012070BD84F85050CC
:10470000204600F02FF8022084F85100206801684C
:1047100021F040010160D4E901010843D4E903120A
:104720001143084361690843218B01F40071084378
:10473000E1690843216A0843A16A084321680860C7
:10474000A069042101EA1040216848602068C1691D
:1047500021F40061C1616565012084F851000020E9
:1047600070BD000070B586B0002406460094019428
:104770000294039400681A4988422ED11949886925
:1047800040F480508861886900F480500490886902
:1047900040F0040088618869694600F004000490D4
:1047A000A020009002200190032003900E48FFF704
:1047B00099F80F4D0D4828601020C5E901048020AC
:1047C000C5E903046C61AC612846EC61FEF770FF3B
:1047D00008B1FEF7BBFAB5646E6206B070BD0000AA
:1047E000003001400010024000080140300002404B
:1047F000203A00202DE9F041044690F850000025B1
:10480000012809D0012784F8507094F8510000263F
:10481000012804D0022549E00220BDE8F08189B1D9
:1048200082B1032084F8510066652163A286E28686
:10483000A66366642664A687E687A068B0F5004F85
:1048400002D006E0012531E02068016841F4804192
:104850000160A16C1748C862A16C17488862A16CFE
:1048600016480863A06C4663E38E2268216B0C3205
:10487000A06CFEF74BFF38B1606D40F01000606532
:10488000012584F8517011E020680168490603D4BD
:10489000016841F0400101602068416841F0200159
:1048A00041602068416841F00201416084F8506035
:1048B0002846B2E7B3570008BD57000891570008D3
:1048C0007047704710B5401EB0F1807F01D30120C2
:1048D00010BD4FF0E02460610F21601702F057FC1B
:1048E0000020A06107202061002010BD70B590F865
:1048F0003C20012A19D0012500F83C5F02224270B9
:1049000050F83C2C5368946823F070060B68496893
:10491000334324F080042143536050F83C2C9160D1
:10492000457000210170084670BD022070BD10B5B1
:10493000040003D094F83D0010B107E0012010BD41
:10494000002084F83C00204600F00CF8022084F897
:104950003D00211D206801F041F8012084F83D0050
:10496000002010BD08B500680649884208D10648F5
:10497000C16941F00201C161C06900F0020000900C
:1049800008BD00000004004000100240022180F831
:104990003D1001688A6802F00702062A03D00A68FF
:1049A00042F001020A60012180F83D1000207047AA
:1049B0000168CA6842F00102CA600068816801F0BB
:1049C0000701062903D0016841F0010101600020C0
:1049D0007047022180F83D1001680A6A41F2111304
:1049E0001A4207D10A6A9B101A4203D10A6822F0C0
:1049F00001020A60012180F83D100020704770B567
:104A0000044690F83C00012817D0012584F83C505A
:104A1000022084F83D002068826822F0770222F4A8
:104A20007F4282600868502830D00DDC20284DD0AD
:104A300005DC98B310283BD148E0022070BD302837
:104A400044D0402834D139E0602828D0702806D0DE
:104A5000B0F5805F2CD0B0F5005F29D10AE0CB68BB
:104A6000D1E90121206800F0EFFF2068816841F062
:104A7000770109E0CB68D1E90121206800F0E4FF6B
:104A80002068816841F48041816011E0CA6849680A
:104A9000206800F0EBFF5021206807E016E0CA68AC
:104AA0004968206800F0F3FF6021206800F0D6FF1D
:104AB00084F83D50002084F83C0070BDCA68496805
:104AC000206800F0D3FF40212068EFE7226801460C
:104AD0001046EBE77047000070B5026804461068A6
:104AE000D168536910F00F0F50D003F0010501F4A5
:104AF000907635435DD0C20705D0CA0503D5E26B79
:104B000042F00102E263420705D5DA0703D0E26B07
:104B100042F00202E263820705D5DA0703D0E26BB6
:104B200042F00402E263020705D5DA0703D0E26B24
:104B300042F00802E263E26B002A33D0800604D51B
:104B4000880602D5204601F037F820684069E16BFD
:104B5000C0F38010090700D428B3204601F015F8EF
:104B60002068416949061AD5416921F04001416137
:104B7000606BA0B11B494163606BFEF7A1FC00288C
:104B800010D0606B416BBDE870400847830610D5BC
:104B90008B060ED52046BDE8704001F00DB82046CA
:104BA000FFF798FF70BD2046FFF794FF0020E063F9
:104BB00070BD030606D50B0604D52046BDE870403F
:104BC00001F0A2B84006F3D54806F1D5D1682046D9
:104BD00021F04001D160202184F8391000F068F9FB
:104BE00070BD0000B35A000870B5040004D094F8FA
:104BF0003900002510B106E0012070BD84F838505E
:104C0000204600F023F8242084F839002068C16889
:104C100021F40051C160204601F01AF820680169B2
:104C200021F4904101612068416921F02A0141612C
:104C30002068C16841F40051C160E563202084F818
:104C4000390084F83A00002070BD0000F0B585B04E
:104C50000025009501950295039504460168434897
:104C6000414E022203230715B1424FD1816941F41D
:104C700080418161816901F480410491816941F041
:104C80000401816180693A4E00F004000490100232
:104C9000CDE90002694603933046FEF723FE01206A
:104CA0000097CDE9015069463046FEF71BFE324EB3
:104CB00030488027C6E90005C6E9025735617561AD
:104CC000B5613046F561FEF7F3FC08B1FEF73EF83A
:104CD00066637462284E27484436143801C6102093
:104CE000A1C6254846F8105944307561B561F56193
:104CF000FEF7DEFC08B1FEF729F826630022114614
:104D000025207462FEF746FF252028E01B4CA142B7
:104D100027D1C16941F48021C161C16901F48021B9
:104D20000491816941F0080181618069144C00F0AF
:104D30000800CDE90330CDE9007269462046FEF750
:104D4000D1FDE014CDE90005694620460295FEF745
:104D5000C9FD002211462720FEF71CFF2720FEF781
:104D60000BFF05B0F0BD000000380140001002400C
:104D70000008014058000240243B00200048004049
:104D8000000C014037B5044690F83A0082B0134653
:104D900020283AD1039AAAB3A3B394F83800012883
:104DA00033D0012084F83800A262A3850025E56392
:104DB000222084F83A00616B15488862616B1548BF
:104DC000C862616B14480863606B45632168606B5F
:104DD000091DFEF79BFC206801684168009184F87A
:104DE0003850C16841F48071C1602068416941F068
:104DF000010141612068416941F0400141610020A9
:104E000005B030BDFFE70120FAE70220F8E7000017
:104E10000D5B0008495B0008C35A0008024988423C
:104E200001D1FDF709B87047A43A0020704700008F
:104E3000F7B5044690F83900202831D1019969B3BB
:104E400062B394F8380001282AD0012084F8380091
:104E50002162A284E2840025E563212084F83900E0
:104E6000236B10489862236B0F48D862236B0F485E
:104E70001863206B134645632668206B321DFEF7CE
:104E800045FC21686FF04000086084F838502068C5
:104E9000416941F0800141610020FEBD0120FEBD5D
:104EA0000220FEBD535B0008815B0008C35A000866
:104EB00070477047FEE7F0B500230A2430253726F7
:104EC0001F4610E0B4EB107F02D905EB107C01E027
:104ED00006EB107C01F813C001EB430C00015B1CD6
:104EE0008CF80170DBB29342ECD3F0BD064A00218E
:104EF00002EB8103D3F8003840F82130491C89B215
:104F00003C29F5D30120704700F0000870B50E4E23
:104F10000546304600F05FFBFEF7D0FC002404CDD0
:104F200006EB840100230220FEF786FC18B1FEF791
:104F300079FC002070BD641CA4B23C2CEFD3FEF7BA
:104F400071FC012070BD000000F8000830B50020A1
:104F50002F4A014622F81010401C0628FADB2D4C7F
:104F60000F211222E08B1E2378282FD010DC4FF067
:104F70000A05482820D006DC1E2817D0322817D072
:104F80003C2811D116E05A281AD064280CD11BE015
:104F9000B42823D004DC90281CD0962804D11BE030
:104FA000C82820D0D82820D0E38307E0322008E0AA
:104FB0003C2002E048200AE05A20E083617417E0B8
:104FC0006420E083657413E078200FE09020E08394
:104FD00062740DE09620F0E7B420F8E7C820E08383
:104FE0001420607404E0D820F1E7F020E0836374BB
:104FF000607C04F039FFE08B617CB0FBF1F1E1747F
:105000000621B0FBF1F12175BDE8304007F070BA20
:105010005837002000000020FEB500241349054643
:1050200000940194029410488C6008600C730C7515
:1050300001260E614FF400204C60C8610846FEF75F
:10504000E5F808B1FDF782FE012D0BD00094CDE903
:10505000016469460548FDF787FF002801D0FDF788
:1050600075FEFEBD0096F2E7002401405439002091
:10507000154808B5416941F00101416140690022CC
:1050800000F00100009011460B20FEF783FD0B207D
:10509000FEF772FD002211460D20FEF77BFD0D206C
:1050A000FEF76AFD002211460E20FEF773FD0E206A
:1050B000FEF762FD002211460F20FEF76BFDBDE8F2
:1050C00008400F20FEF758BD001002402DE9F041C6
:1050D00086B00024804629480094019402940394E9
:1050E000816941F010018161816901F01001049131
:1050F000816941F020018161816901F02001049101
:10510000816941F004018161816901F00401049128
:10511000816941F0080181618069194F00F0080040
:105120004FF460450490002229463846FEF7C0FC43
:105130000095022601250396CDE9015469463846BB
:10514000FEF7D0FBE8038DE8310069460D48FEF715
:10515000C9FB6802CDE90004B8F1010F0AD0B8F12B
:10516000020F09D0029469460748FEF7BBFB06B060
:10517000BDE8F0810296F6E70295F4E700100240E0
:105180000010014000080140000C0140104810B51B
:105190000E4901604FF48271416000218160C1605D
:1051A0004FF400720161C0E905121022C0E9072125
:1051B000416281620A21C162FFF795FA002803D09B
:1051C000BDE81040FDF7C2BD10BD00000030014039
:1051D000C839002010B586B0002417480094019407
:1051E00002940394049413490594C0E9001440F216
:1051F0006161C0E9024104618461FFF798FB08B175
:10520000FDF7A4FD4FF48050009069460A48FFF76F
:10521000F6FB08B1FDF79AFD2020CDE9040404A9AE
:105220000548FFF763FB002801D0FDF78FFD06B0AE
:1052300010BD000000040040643A00200C4810B586
:105240000A4901604FF416514160002181600C222F
:10525000C160C0E904128161C161FFF7C5FC00288B
:1052600003D0BDE81040FDF771BD10BD003801400E
:10527000A43A00200C4810B50A4901604FF41651B9
:105280004160002181600C22C160C0E9041281618B
:10529000C161FFF7A9FC002803D0BDE81040FDF76D
:1052A00055BD10BD00480040E43A002010B5002272
:1052B0000F49104801F03EF808B1FDF747FD0E49CF
:1052C0000C4801F019FA08B1FDF740FD0B490948F7
:1052D00000F03CFE08B1FDF739FD064801F062FA26
:1052E000002803D0BDE81040FDF730BD10BD000020
:1052F0004C000020AC3B00209C0100209C000020C2
:10530000FEE770472DE9F05F04464FF0060A4FF0C4
:10531000020B4FF4806841E1B0F8441011F00F0621
:1053200028D030F826905FEA094177D530F826106A
:1053300040F68F72114041F0800120F8261004EBF6
:10534000461595F8340105F59475002820687DD040
:10535000297830F82120B0F85030520477D50BEB83
:10536000C1015A1808EB4201415A8F05BF0D6FD099
:105370002A89C9E0C9062ED4018848F60F72114067
:1053800041F400410180206804F12805B0F8502064
:105390002B780BEBC3010A4408EB4201405AC0F3DF
:1053A00009006064E16B0844E06300212046FEF7D9
:1053B0003EFC94F824000028ADD0A8690028AAD1AA
:1053C00094F82400216840F08000A1F84C000020EF
:1053D00084F82400E2E0018804F594750A051ED5DE
:1053E000B0F850202B780AEBC3010A4408EB4201C5
:1053F000405A04F50C71C0F30903EB61EA88206898
:1054000001F051FE2068018840F68F72114041F092
:10541000800101802046FEF740FEBFE098E00904CD
:1054200055D5018840F68F72114041F0800101800E
:105430002068B0F850202B780AEBC3010A4408EB2F
:105440004201405A83059B0DEB6102E040E051E0D0
:105450005EE00DD0696959B1EA88206801F023FE49
:10546000E96968690844686100212046FEF7E6FBA7
:105470002068B0F850100844296900F20C4051B17E
:105480003E2910D84A08C90700D0521C4FF6FF71B8
:1054900001EA82210FE0018821F4F84101800188AE
:1054A00041F4004107E04A09C90600D1521E4FF4F9
:1054B000004141EA82210180206801884BF68F7209
:1054C000114081F4405148F280021143018065E0AF
:1054D000B0F850202B780AEBC3010A4408EB4201D4
:1054E000415A8F05BF0D1FD0EA883B46696901F01C
:1054F000DAFD19E00AEBC1015A1808EB4201415AE2
:105500008F05BF0D04D06A893B46696901F0CBFD68
:105510002978206830F8212048F68F731A4048F225
:10552000C0031A4320F82120E8693844E86168691B
:10553000C2196A61AB6913B12869B84204D92978E4
:105540002046FEF77BFB03E029782046FEF703FCAC
:105550005FEA096022D5216804EB461031F8262065
:1055600048F60F731A4042F4004221F826202168C1
:10557000B1F8503090F828500BEBC502134408EBFB
:105580004302895AC1F309014164C26B0A44C263F0
:10559000036CE9B2204653B1FEF729FC2068B0F84D
:1055A000441009043FF5B8AE0020BDE8F09FFEF7B7
:1055B0003EFBF3E7054A0649002032F8023B401C57
:1055C00021F8023B1828F8DB7047000000F40008BF
:1055D00050020020704710B586B00446FEF76EF901
:1055E0000121002003918DE8130004A96846FEF70D
:1055F000C5F810B1FEF716F904E0FEF713F90498A8
:10560000401C02D0002006B010BD0120FBE70000C6
:1056100000B588B0684600F043F800283AD0BDF8DD
:1056200000000DF10201A0F50742653A32D11A4897
:10563000BDF80220C2839DF8042082709DF80520E9
:10564000C2709DF8062002719DF807204271134B2D
:10565000BDF808201A70BDF80A208285BDF80C201C
:105660004284BDF80E2082849DF81020C2719DF8FE
:10567000112002729DF8122042749DF81320427589
:105680008A7C4272CA7C82728A8A0285CA8AC284F1
:10569000097E817108B000BD00000020AF0000202D
:1056A00010B51021164C0A4604EB41135208D3F8EA
:1056B000003C5B1C01D0114400E0891A89B2002A29
:1056C000F2D104EB4112D2F8002C521C01D1491E38
:1056D00089B2202901D3002010BD0022490101EB2D
:1056E00082032344D3F8003C40F82230521C92B28B
:1056F000082AF4D30068401CEED0012010BD000041
:1057000000F000082DE9F041064610241E4821460D
:1057100000EB44124908D2F8002C521C24D0621825
:1057200094B20029F4D100EB4410D0F8000C401CD6
:1057300001D0641CA4B2154F202C03D33846FFF7C8
:105740004AFF0024FEF7BAF80025640104EB850047
:1057500004CEC11900230220FEF76EF858B1FEF7FF
:1057600061F80020BDE8F08111B1621A94B2CFE770
:10577000641EA4B2D7E76D1CADB2082DE6D3FEF7C8
:1057800051F80120EEE7000000F0000800FC0008DE
:1057900010B5406A01684A6822F003024A60416D10
:1057A00041F010014165012180F85110FEF79AFF88
:1057B00010BD10B5406AFFF784F810BD38B5054636
:1057C000446AFEF77BF9024628680068800623D405
:1057D0002068416821F0200141602068416821F083
:1057E000020141606421204600F01AF818B1606D92
:1057F00040F020006065A068002118B92068C268E8
:1058000080680090E186012084F85100606D18B135
:105810002046FEF767FF38BD2046FFF751F838BD38
:1058200038B50B46009204460022802100F008F8AB
:10583000002804D0606D40F020006065032038BD72
:105840002DE9F0411D4617460E460446DDF8188046
:1058500008E0681C06D0FEF731F9A0EB0800A8426A
:105860000BD255B12068806836EA000030D00020A5
:10587000B842EED10020BDE8F0812068416821F0F7
:10588000E00141606068B0F5827F0BD1A068B0F59F
:10589000004F02D0B0F5806F04D12068016821F07C
:1058A00040010160A06AB0F5005F09D1206801687D
:1058B00021F4005101602068016841F40051016049
:1058C000012084F85100002084F850000320D2E722
:1058D0000120CDE77047000010B5FEF7F5F80D493F
:1058E0000878401CC0B20870CB780022984204D9D6
:1058F0000A70887840F0010088704878401CC0B277
:105900004870122804D94A70887840F002008870E4
:1059100010BD0000AC00002030B593B028216846CF
:10592000FBF72BFD14210AA8FBF727FD002401211A
:105930000F9410940804CDE900101194129402946D
:1059400002250491CDE907504FF4E0100990684614
:10595000FEF73CFD00B1FEE70F20CDE90A054FF44C
:105960008060CDE90C404FF4A0600E9002210AA89F
:10597000FEF73AFC00B1FEE712200F904FF4804092
:10598000CDE911040FA8FEF7BBFB002800D0FEE70D
:1059900013B030BD0D48016841F00101016041685C
:1059A0000B4A1140416001680A4A114001600168D8
:1059B00021F480210160416821F4FE0141604FF42F
:1059C0001F0181600449C003086070470010024055
:1059D0000000FFF8FFFFF6FE08ED00E0F0B50268FA
:1059E000164C174D174E4FF08047A04205D0B842D5
:1059F00003D0A84201D0B04203D122F070034A681C
:105A00001A43A04205D0B84203D0A84201D0B04208
:105A100003D122F44073CA681A434B6922F0800212
:105A20001A4302608A68C2620A688262A04201D197
:105A30000969016301214161F0BD0000002C0140B2
:105A4000000400400008004010B5846842EA0322C8
:105A500024F47F440A432243826010BD826822F00E
:105A600070020A4342F007018160704710B5046A72
:105A7000036A23F001030362836923F0F00343EA1E
:105A8000021324F00A020A438361026210BD10B5BA
:105A9000036A23F0100303628469036A24F47044E8
:105AA00044EA023223F0A00343EA01118261016259
:105AB00010BD10B5406A0021C185C184FFF70AF806
:105AC00010BD70B5446A2068406994F83910C0F37D
:105AD000C0100025212904D118B1E584204600F02A
