:020000040800F2
:10000000E84B002001010008334A000819470008A6
:10001000314A0008A1200008FD6700080000000028
:1000200000000000000000000000000085500008F3
:100030009321000800000000FD4D000889500008D1
:100040001B0100081B0100081B0100081B01000820
:100050001B0100081B0100081B0100081B01000810
:100060001B0100081B0100081B01000839210008C2
:100070001B01000845210008512100085D210008EE
:100080001B0100081B0100081B0100081B010008E0
:10009000996700081B0100081B0100081B010008EC
:1000A0001B0100081B0100081B0100081B010008C0
:1000B0001B0100081B0100081B0100081B010008B0
:1000C0001B0100081B0100081B0100081B010008A0
:1000D0001B010008E15500081B0100081B01000876
:1000E0001B0100081B0100081B010008DFF80CD0F1
:1000F00001F0E8FC0048004709700008E84B0020C8
:100100000648804706480047FEE7FEE7FEE7FEE7B1
:10011000FEE7FEE7FEE7FEE7FEE7FEE751510008D7
:10012000ED0000082DE9F04F4FF0000C4FF00003F8
:1001300001EB9C5EBEF90250BEF900400EF5806EE8
:10014000BEF90290BEF900800EF5806EBEF9027015
:10015000BEF900600EF5806EBEF902B0BEF900A0D7
:100160000EF5806ED044D944A8EB4A0AA9EB4B0B9C
:100170004FEAA4044FEAA50504EBA60405EBA70586
:10018000A4EB6606A5EB670704EBA80405EBA9053D
:10019000A4EB6808A5EB690906EBAB06A7EBAA0779
:1001A000A6EB6B0B07EB6A0A458020F8044B4780EF
:1001B00020F8046BA0F8029020F8048BA0F802A0AD
:1001C00020F804BB03F1010393FAA3FCB3F5807F8D
:1001D000AED1A0EB82014FF0100312090FF23410E0
:1001E00000F1000006B403EB430C6144A2F5803239
:1001F00002EB8332B1F90250B1F90040A1EB0301E7
:10020000B0F902B0B0F900A000F10400A5EB040EB3
:100210000EFB0BFC0AEB4B0E05FB0ACB04FB0ECAD4
:10022000B1F90250B1F90040A1EB0301B0F902901D
:10023000B0F9008000F10400A5EB040E0EFB09FCF0
:1002400008EB490E05FB08C904FB0EC8B1F90250C2
:10025000B1F90040A1EB0301B0F90270B0F9006000
:1002600000F10400A5EB040E0EFB07FC06EB470EA5
:1002700005FB06C704FB0EC6B1F90250B1F90040F8
:1002800001F10001D044D944A8EB4A0AA9EB4B0B79
:100290004FEAA4044FEAA50504EB264405EB2745E5
:1002A000A4EBE636A5EBE73704EB284405EB29453C
:1002B000A4EBE838A5EBE93906EB2B46A7EB2A4778
:1002C000A6EBEB3B07EBEA3A4D800C8019444F80DC
:1002D0000E801944A1F80290A1F800801944A1F8F9
:1002E00002A021F804BBB2F5803283DA03EB430CA1
:1002F0006144A2F101025FEA024E18BFA0EB0C00BC
:100300007FF476AF06BC4FEA830392087FF46AAFAE
:10031000BDE8F08F004000000040000000400000F9
:100320005DDD213BA3227E180000412D7EA5412DDD
:100330000000412D00C000405DDD82E75DDD213B16
:100340007EA5412D0040000000400000004000005C
:10035000AA2A94126B39460649327C0CA8118E23C6
:1003600049327C0CA3227E1821F77931AA2A9412F3
:10037000A8118E235DDD213BA3227E180000412DB4
:1003800095C6B13F461A2B1E58EE3735BEB4C53E52
:10039000A8118E235DDD213B63A97138DF089A28FF
:1003A000B7CDC53E7EA5412D0000412D00C00040C7
:1003B00063A92B1E21F77931BEB4C53EBEB47C0CB7
:1003C00058EE373561AC213B95C6BAF9BAE57138BC
:1003D0003BA737355DDD82E75DDD213B7EA5412D05
:1003E00021F766D756D53F3D3BA78E23A811C9CA32
:1003F000B7CDC53E61AC7E18AA2AC1C295C6B13F31
:10040000BEB47C0C00400000004000000040000032
:100410001E3BB504693E9201C83C2403EB356409D8
:10042000C83C24036B3946066C30060E1E3BB504EF
:10043000EB356409AA2A94126B39460649327C0CC2
:10044000AE240917AF37D607882E8D0F7E1E5D1B91
:10045000EB356409AA2A941224188C1F1E34F10A61
:10046000B3269015A8118E2349327C0CA3227E1846
:10047000140B60276C30060E7E1E5D1B7104FB2A78
:10048000882E8D0F461A2B1EC7FD5A2E9D2C121139
:10049000FE15E72021F77931AA2A9412A8118E239C
:1004A00087F05334B2281314480D202602EAE536AB
:1004B000B3269015DF089A289CE32B39AE24091740
:1004C0007104FB2A5DDD213BA3227E180000412D33
:1004D0004ED7C53C9320EF198FFB6C2F78D1153E7A
:1004E0007E1E5D1B21F77931E2CB0F3F641CC61CD9
:1004F000B8F2683395C6B13F461A2B1E58EE373511
:1005000097C1FB3F24188C1F02EAE536F0BCEC3F94
:10051000FE15E720BAE57138A6B8853FD5133D2210
:1005200082E1DB39BEB4C53EA8118E235DDD213BDF
:1005300040B1AF3D790FDA244DD9423C2EAE423C5A
:10054000480D202656D53F3D8EAB823A140B6027CE
:1005500078D1153E63A97138DF089A28B7CDC53E1A
:10056000B1A71236A906CE2915CA4F3F78A668331F
:100570007104FB2A95C6B13FBCA576303902212C07
:1005800038C3EC3F7EA5412D0000412D00C0004046
:10059000BCA5CE29C7FD5A2EF0BCEC3F78A620267C
:1005A0008FFB6C2F09BAB13FB1A73D2257F97630C6
:1005B0004DB74F3F63A92B1E21F77931BEB4C53E1D
:1005C0008EABEF19ECF474325EB2153E2EAE901580
:1005D000B8F268332DB03F3D40B1121187F053346B
:1005E0002EAE423CBEB47C0C58EE373561AC213B9C
:1005F000A6B8D6072BEC1236C8AADB39F0BC240308
:1006000002EAE53663A9713897C16EFEDCE7B037C0
:1006100034A8E53695C6BAF9BAE571383BA737353F
:10062000E2CB0FF59CE32B3978A6683378D173F0D1
:1006300082E1DB39EDA579314ED7EDEB6DDF823A02
:1006400099A56C2F5DDD82E75DDD213B7EA5412D07
:100650009CE33AE352DBB63B99A5FB2A02EA19DF99
:100660004DD9423CEDA59A2887F026DB4ED7C53CF4
:1006700078A6202621F766D756D53F3D3BA78E2387
:10068000C7FDDFD363D3AF3D34A8E720710494D016
:1006900078D1153E63A92B1E140B8CCD94CF723EDE
:1006A000C8AA5D1BA811C9CAB7CDC53E61AC7E18EA
:1006B000241850C8E2CB0F3F2EAE90157E1E25C6E3
:1006C00015CA4F3F2DB09412AE244AC451C8853F7D
:1006D0005EB28D0FAA2AC1C295C6B13FBEB47C0CD2
:1006E0006C308EC1E2C4D43F4DB76409EB35B1C064
:1006F00038C3EC3F09BA46061E3B2CC097C1FB3FEE
:10070000F0BC240300400000004000000040000056
:10071000D03E2E019B3F6500363FC9009A3D5B02EB
:10072000363FC900693E92015F3C8803D03E2E01EE
:100730009A3D5B021E3BB504693E9201C83C24030E
:10074000D939E205023EF701F43BED038E380E077E
:100750009A3D5B021E3BB5043F373908313DC0026C
:10076000463A7E05EB356409C83C24036B394606DE
:1007700092348E0A5F3C88038E380E073433B70BF1
:10078000F43BED03AF37D607D231DF0C8A3B51047F
:10079000CE369D086C30060E1E3BB504EB35640961
:1007A000022F2B0FB23A1A0505352B0A932D501044
:1007B000463A7E051E34F10A212C7311D939E2051F
:1007C0003433B70BAA2A94126B39460649327C0C93
:1007D0003129B413FD38AA065B31410DB327D21479
:1007E0008E380E076C30060E3226EE151F38720753
:1007F0007B2FCA0EAE240917AF37D607882E8D0F70
:10080000262321183F373908932D50109C21371982
:10081000CE369D089D2C12110E204B1A5D36010913
:10082000A42BD3117E1E5D1BEB356409AA2A9412FA
:10083000EB1C6C1C7835C709AF295413561B791D66
:1008400005352B0AB2281314BE19841E92348E0A61
:10085000B327D21424188C1F1E34F10AB326901526
:1008600088169120A933540BB1254C16EA14932114
:100870003433B70BAE2409174A139222BF321A0C35
:10088000A923C417A8118E2349327C0CA3227E18F9
:1008900005108824D231DF0C9C213719610E7E258A
:1008A0005B31410D9320EF19BB0C7126E430A40D90
:1008B000891FA71A140B60276C30060E7E1E5D1B65
:1008C0006D094C28F42F680E721D121CC4073529BF
:1008D0007B2FCA0E641CC61C1B061A2A022F2B0F64
:1008E000561B791D7104FB2A882E8D0F461A2B1E6C
:1008F000C702D82B0E2EEE0F3519DC1E1C01B22CB0
:10090000932D501024188C1F72FF882D182DB110B4
:1009100011173A20C7FD5A2E9D2C1211FE15E72003
:100920001DFC282F212C7311EA14932173FAF22F46
:10093000A42BD311D5133D22CAF8B830282B34127A
:10094000BF12E72221F77931AA2A9412A8118E2327
:1009500079F536322D2AF41291103524D2F3EF3284
:10096000AF295413790FDA242CF2A3333129B413AD
:10097000610E7E2587F05334B2281314480D2026CB
:10098000E3EEFF34332873142E0CC12641EDA53558
:10099000B327D214140B6027A1EB48363327311547
:1009A000FA09FE2702EAE536B3269015DF089A28F1
:1009B00065E87E373226EE15C4073529CBE61238B6
:1009C000B1254C16A906CE2932E5A1382F25AB1644
:1009D0008D05652A9CE32B39AE2409177104FB2A87
:1009E00008E2B0392B24661755038F2B77E0303A95
:1009F000A923C4173902212CE9DEAB3A262321189A
:100A00001C01B22C5DDD213BA3227E180000412D8C
:100A1000D5DB923B1F22DB18E4FECF2D4FDAFD3BE6
:100A20009C213719C7FD5A2ECDD8643C1721931944
:100A3000ABFCE42E4ED7C53C9320EF198FFB6C2FF7
:100A4000D3D5213D0E204B1A73FAF22F5CD4783D9A
:100A5000891FA71A57F97630E8D2C93D041F021B37
:100A60003CF8F93078D1153E7E1E5D1B21F77931B7
:100A70000CD05C3EF81DB81B06F6F831A5CE9D3EA5
:100A8000721D121CECF4743241CDD83EEB1C6C1C70
:100A9000D2F3EF32E2CB0F3F641CC61CB8F26833CE
:100AA00088CA403FDD1B201D9FF1DF3332C96B3FF9
:100AB000561B791D87F05334E1C7913FCE1AD31DE1
:100AC0006FEFC63495C6B13F461A2B1E58EE373528
:100AD0004EC5CC3FBE19841E41EDA5350CC4E13F87
:100AE0003519DC1E2BEC1236CFC2F13FAD18341F86
:100AF00016EB7D3697C1FB3F24188C1F02EAE536C2
:100B000065C000409B17E31FEFE84B3738BFFF3F3E
:100B100011173A20DCE7B03711BEF83F8816912054
:100B2000CBE61238F0BCEC3FFE15E720BAE5713891
:100B3000D4BBDB3F74153D21AAE4CF38BFBAC43F14
:100B4000EA1493219CE32B39AFB9A73F5F14E82146
:100B50008EE28439A6B8853FD5133D2282E1DB3988
:100B6000A2B75D3F4A13922277E0303AA5B6303FF4
:100B7000BF12E7226DDF823AAFB5FD3E34123B2350
:100B800064DED33ABEB4C53EA8118E235DDD213BA1
:100B9000D5B3883E1D11E22357DC6D3BF2B2453ED2
:100BA0009110352452DBB63B15B2FC3D051088246C
:100BB0004FDAFD3B40B1AF3D790FDA244DD9423CCD
:100BC00071B05B3DED0E2C254DD8853CA9AF033DA2
:100BD000610E7E254ED7C53CE8AEA53CD40DCF2591
:100BE00051D6033D2EAE423C480D202656D53F3D02
:100BF0007BADDA3BBB0C71265CD4783DD0AC6D3B51
:100C00002E0CC12663D3AF3D2BACFA3AA10B1127B2
:100C10006DD2E33D8EAB823A140B602778D1153E3E
:100C2000F8AA063A870AAF2785D0453E6AAA8439D2
:100C3000FA09FE2794CF723EE3A9FD386D094C28CE
:100C4000A5CE9D3E63A97138DF089A28B7CDC53E71
:100C5000EBA8E1375208E728CCCCEB3E7BA84B371A
:100C6000C4073529E2CB0F3F12A8B13636078129D8
:100C7000FBCA303FB1A71236A906CE2915CA4F3F8D
:100C800057A76E351B061A2A32C96B3F05A7C63413
:100C90008D05652A51C8853FBBA61934FF04B02ACB
:100CA00072C79C3F78A668337104FB2A95C6B13F92
:100CB0003EA6B232E303452BBAC5C43F0BA6F831BA
:100CC00055038F2BE2C4D43FE0A53931C702D82B9E
:100CD0000CC4E13FBCA576303902212C38C3EC3F6F
:100CE000A1A5AF2FAA016A2C66C2F53F8DA5E42EFF
:100CF0001C01B22C97C1FB3F81A5152E8E00FA2C4A
:100D0000CAC0FF3F7EA5412D0000412D00C000401C
:100D100081A56A2C72FF882D38BFFF3F8DA58F2BD0
:100D2000E4FECF2D73BEFB3FA1A5B02A56FE152EC3
:100D3000B0BDF53FBCA5CE29C7FD5A2EF0BCEC3F97
:100D4000E0A5E72839FD9F2E32BCE13F0BA6FE2728
:100D5000ABFCE42E77BBD43F3EA611271DFC282F09
:100D6000BFBAC43F78A620268FFB6C2F09BAB13FCB
:100D7000BBA62C2501FBAF2F56B99C3F05A73524F8
:100D800073FAF22FA6B8853F57A73B23E5F9343015
:100D9000F8B76B3FB1A73D2257F976304DB74F3FBB
:100DA00012A83D21CAF8B830A5B6303F7BA83A203A
:100DB0003CF8F93000B60F3FEBA8341FAEF73931DD
:100DC0005EB5EB3E63A92B1E21F77931BEB4C53E5B
:100DD000E3A9201D93F6B93122B49D3E6AAA121CE4
:100DE00006F6F83188B3723EF8AA021B79F536325E
:100DF000F2B2453E8EABEF19ECF474325EB2153EA2
:100E00002BACDB185FF4B232CDB1E33DD0ACC417EC
:100E1000D2F3EF3240B1AF3D7BADAB1645F32C338F
:100E2000B5B0783D2EAE9015B8F268332DB03F3D89
:100E3000E8AE73142CF2A333A9AF033DA9AF54134A
:100E40009FF1DF3328AFC53C71B0341213F1193470
:100E5000A9AE853C40B1121187F053342EAE423C0E
:100E600015B2EE0FFBEF8D34B6ADFD3BF2B2CA0EFC
:100E70006FEFC63441ADB63BD5B3A40DE3EEFF34FE
:100E8000D0AC6D3BBEB47C0C58EE373561AC213B29
:100E9000AFB5540BCCED6E35F6ABD33AA5B62B0AF5
:100EA00041EDA5358EAB823AA2B70109B6ECDC352F
:100EB00029AB303AA6B8D6072BEC1236C8AADB39D4
:100EC000AFB9AA06A1EB48366AAA8439BFBA7E0533
:100ED00016EB7D360FAA2B39D4BB51048CEAB13600
:100EE000B7A9CF38F0BC240302EAE53663A971380C
:100EF00011BEF70178E9183712A9123838BFC900B6
:100F0000EFE84B37C5A8B03765C09BFF65E87E3773
:100F10007BA84B3797C16EFEDCE7B03734A8E536C7
:100F2000CFC240FD53E7E137F1A77D360CC413FC77
:100F3000CBE61238B1A712364EC5E6FA42E6423881
:100F400074A7A53595C6BAF9BAE571383BA7373508
:100F5000E1C78EF832E5A13805A7C63432C963F778
:100F6000AAE4CF38D3A6533488CA39F623E4FD382F
:100F7000A4A6DF33E2CB0FF59CE32B3978A66833C8
:100F800041CDE6F315E3583950A6EF32A5CEBFF2B6
:100F90008EE284392CA674320CD098F108E2B03974
:100FA0000BA6F83178D173F082E1DB39EDA5793108
:100FB000E8D24FEFFCE0063AD3A5F9305CD42DEE31
:100FC00077E0303ABCA57630D3D50CEDF2DF593A54
:100FD000A9A5F22F4ED7EDEB6DDF823A99A56C2FC4
:100FE000CDD8CFEAE9DEAB3A8DA5E42E4FDAB4E9ED
:100FF00064DED33A85A55A2ED5DB9AE8E1DDFA3ACC
:101000007FA5CF2D5DDD82E75DDD213B7EA5412DF6
:10101000E9DE6DE6DADC473B7FA5B22C77E059E5E7
:1010200057DC6D3B85A5212C08E248E4D5DB923BDB
:101030008DA58F2B9CE33AE352DBB63B99A5FB2AA7
:1010400032E52DE2D1DADA3BA9A5652ACBE624E127
:101050004FDAFD3BBCA5CE2965E81DE0CED9203C8A
:10106000D3A5352902EA19DF4DD9423CEDA59A28CE
:10107000A1EB18DECDD8643C0BA6FE2741ED19DDAF
:101080004DD8853C2CA66027E3EE1EDCCDD7A53CD1
:1010900050A6C12687F026DB4ED7C53C78A6202671
:1010A0002CF231DACFD6E43CA4A67E25D2F33FD988
:1010B00051D6033DD3A6DA2479F551D8D3D5213DB5
:1010C00005A7352421F766D756D53F3D3BA78E238C
:1010D000CAF87FD6D8D45B3D74A7E72273FA9BD5B4
:1010E0005CD4783DB1A73D221DFCBBD4DFD3933D3A
:1010F000F1A79321C7FDDFD363D3AF3D34A8E72029
:1011000072FF06D3E8D2C93D7BA83A201C0131D238
:101110006DD2E33DC5A88C1FC70261D1F2D1FC3D61
:1011200012A9DC1E710494D078D1153E63A92B1E40
:101130001B06CCCFFED02D3EB7A9791DC40707CF23
:1011400085D0453E0FAAC61C6D0947CE0CD05C3E2B
:101150006AAA121C140B8CCD94CF723EC8AA5D1BD8
:10116000BB0CD4CC1CCF883E29ABA71A610E21CC76
:10117000A5CE9D3E8EABEF19051073CB2ECEB13EA2
:10118000F6AB3719A811C9CAB7CDC53E61AC7E18F8
:101190004A1324CA41CDD83ED0ACC417EA1483C93F
:1011A000CCCCEB3E41AD09178816E8C857CCFD3EC4
:1011B000B6AD4C16241850C8E2CB0F3F2EAE90159A
:1011C000BE19BEC76ECB203FA9AED214561B31C785
:1011D000FBCA303F28AF1314EB1CA8C688CA403F97
:1011E000A9AF54137E1E25C615CA4F3F2DB09412C9
:1011F0000E20A7C5A3C95D3FB5B0D3119C212DC555
:1012000032C96B3F40B112112623B9C4C1C8783F1F
:10121000CDB15010AE244AC451C8853F5EB28D0F87
:101220003226E0C3E1C7913FF2B2CA0EB3277BC3B7
:1012300072C79C3F88B3060E31291CC303C7A73F62
:1012400022B4410DAA2AC1C295C6B13FBEB47C0CDE
:10125000212C6DC227C6BB3F5EB5B70B932D1DC2B7
:10126000BAC5C43F00B6F10A022FD3C14EC5CC3F68
:10127000A5B62B0A6C308EC1E2C4D43F4DB76409C9
:10128000D2314FC176C4DB3FF8B79D08343315C166
:101290000CC4E13FA6B8D6079234E0C0A1C3E73F33
:1012A00056B90E07EB35B1C038C3EC3F09BA460654
:1012B0003F3788C0CFC2F13FBFBA7E058E3864C0C9
:1012C00066C2F53F77BBB504D93945C0FEC1F83FCA
:1012D00032BCED031E3B2CC097C1FB3FF0BC240386
:1012E0005F3C19C030C1FD3FB0BD5B029A3D0BC0F1
:1012F000CAC0FF3F73BE9201D03E03C065C000402C
:1013000038BFC900202A04DB203A21FA02F000216C
:10131000704721FA02F3D040C2F120029140084305
:10132000194670470649074A0868504343F2390294
:101330001044086040087047014908607047000089
:10134000C40100206D4EC64140EA01039B0703D053
:1013500009E008C9121F08C0042AFAD203E011F8F4
:10136000013B00F8013B521EF9D2704710B504460C
:1013700004E00B7800F8013B03B1491C521EF8D27F
:10138000204610BD80EA010210B502F00043400083
:1013900022D04A001FD0010E01EB1261C0F35600AB
:1013A000C2F3560240F4000042F40002A0FB022007
:1013B00000047F39140400D0401C50EA124001D4CC
:1013C0004000491EC2B20C0604EBD010401C40087D
:1013D000802A02D003E0002010BD20F00100002987
:1013E00000DA0020184310BD30B480EA010202F098
:1013F000004530F0004221F0004013D090B1C30D01
:10140000D40DC2F31601C0F31600E41A41F4000132
:1014100040F400027D34914201D3641C00E0490095
:10142000002C02DA30BC002070474FF4000000238B
:10143000914201D3891A034340084FEA4101F7D191
:1014400051B1914202D14FF0004105E002D24FF07C
:10145000010101E06FF0010103EBC450284430BCEE
:1014600000F010BA2DE9FE4F804681EA0300C00F5C
:101470000C46009021F0004123F00045B8EB02003B
:10148000A94105D24046214690461C460B460246DD
:1014900023F00040104347D0270DC7F30A00C3F3E1
:1014A0000A510290401A019040286BDAC3F31300EE
:1014B00040F4801B0098924620B10023D2EB030A2F
:1014C00063EB0B0B01985946C0F14002504600F007
:1014D000B8F906460D4650465946019A00F0C0F943
:1014E00010EB08006141002487EA115284EAE77397
:1014F0001A4340D0009A62B3019A012A4FEA075278
:1015000015DC001B61EB02014FF0004202EA0752BA
:10151000CDE90042001C41F5801132462B4600F017
:10152000F7F903B0BDE8F08F40462146F9E7001B0C
:1015300061EB0201001C41F5801300185B4120188B
:10154000A2F5001747EB030140EAD570B6196D41CB
:1015500011E06D084FEA360645EAC0754FEA0752BA
:10156000001B61EB0201001C41F5801149084FEAA4
:1015700030000019514132462B4603B0BDE8F04F10
:1015800000F0B7B90098012240000023D0EB02021E
:1015900063EBE073009821464FEAE074B8EB00007B
:1015A00061EB0401E9E783F000435BE781F0004170
:1015B00058E72DE9FE4F81EA030404F0004421F0CE
:1015C000004100944FF0000B23F0004350EA010467
:1015D0005ED052EA03045BD0C3F30A54C1F30A5548
:1015E0002C44A4F2F3340194A0FB0254C1F3130180
:1015F00041F48011C3F3130343F4801301FB02444D
:1016000000FB034E840A970A44EA815447EA835751
:10161000A4FB076802958D0A05FB07854FEA932C0A
:1016200004FB0C542705029D4FEA065847EA16377B
:10163000B5EB08056EEB070C870E920E47EA811793
:1016400042EA8312A7FB0201B6EB0B0164EB000434
:101650002B0D43EA0C335E1844EB1C50DA4651461E
:10166000E7FB0201C5F313044FEA0B3343EA1453BB
:101670004FEA0432019C43EA0603A4F10C040294ED
:10168000009CCDE900B400F043F903B0BDE8F08F51
:1016900000200146F9E72DE9F04D81EA030404F04A
:1016A000004B21F0004514464FF0000A23F00041A2
:1016B00050EA050220D054EA01021DD0C5F30A57B2
:1016C0000246C5F31303C1F31300C1F30A5640F4F5
:1016D000801543F48013A7EB0608101BD64608F2CA
:1016E000FD3873EB050002D308F1010801E0921800
:1016F0005B41B8F1000F03DA00200146BDE8F08D30
:1017000000204FF48011064684460EE0171B73EB51
:10171000050705D3121B63EB050306434CEA010CD6
:1017200049084FEA300092185B4150EA0107EDD1B9
:1017300052EA030012D082EA040083EA050108435A
:1017400005D0101BAB4106D20122002306E0002287
:101750004FF0004302E06FF0010253101AEB060055
:101760004CEB085110EB0A0041EB0B01BDE8F04DCA
:1017700000F0BFB8C10F80EAE0700844CA079623A2
:10178000002100F088B896230022114600F083B8AB
:101790000EB5C10F80EAE0700844CA07002140F28C
:1017A00033438DE80E000A460B4600F0B1F803B053
:1017B00000BDC1F30A5210B5C1F3130140F2FF336B
:1017C00041F480119A4201DA002010BD40F2334307
:1017D0009A42A2F2334203DC5242FFF793FD10BD5E
:1017E000904010BD00F0004230F000400AD0C10D22
:1017F00001F56071C0F3160042EA0151C2084007CA
:101800001143704700200146704701F0004330B497
:1018100021F0004150EA010206D00A0DA2F56072E3
:10182000C1F31301002A02DC30BC00207047440FD2
:1018300044EAC104C100E01830BC00EBC25000F023
:1018400021B8202A04DB203A00FA02F10020704778
:101850009140C2F1200320FA03F3194390407047EE
:10186000202A06DBCB17203A41FA02F043EAE07364
:1018700006E041FA02F3D040C2F120029140084351
:10188000194670470029A8BF7047401C490008BF8F
:1018900020F00100704710B4B0FA80FC00FA0CF0A0
:1018A00050EA010404BF10BC704749B1CCF12004D8
:1018B00021FA04F411FA0CF118BF01212143084365
:1018C000A3EB0C01CB1D4FEA00614FEA102042BF91
:1018D000002010BC704700EBC35010440029A4BF87
:1018E00010BC7047401C490008BF20F0010010BC2C
:1018F000704710B5141E73F1000408DA401C41F162
:10190000000192185B411A4301D120F0010010BD83
:101910002DE9F04D92469B4611B1B1FA81F202E0F9
:10192000B0FA80F220329046FFF78BFF04460F4654
:1019300040EA0A0041EA0B0153465A46084313D0D5
:10194000114653EA010019D0C8F140025046FFF792
:10195000D9FC05460E46504659464246FFF771FFF0
:10196000084305D0012004E020463946BDE8F08D4B
:101970000020054346EAE0762C4337430A98630586
:10198000E40AA0EB08000022FD0A44EA47540A30AA
:1019900002D500200146E9E7010510196941DDE99A
:1019A000084500196941BDE8F04DA2E770B521F086
:1019B000004303430CD0C1F30A550024D5EB0405C2
:1019C00064EB0403D617AD1AB34102DB00200146D5
:1019D00070BD201841EB025170BD00002DE9F041AF
:1019E000054621F000400C46284309D0C4F30A50B4
:1019F00040F23341884205DD28462146BDE8F081AA
:101A00002846FBE740F2FE31884210DC0CDB4FEA4F
:101A1000043040EA155050EA053105D0104804F072
:101A2000004101430020E9E700200146E6E7A0F27B
:101A300033404642C6F1400228462146FFF701FFE7
:101A400007468846284621463246FFF75BFC434658
:101A50003A46FFF74EFF3246BDE8F041FFF7F1BED0
:101A60000000F03F30B5041E71F1000404DB4FF0BC
:101A70000044404264EB0101141E73F1000405DBD5
:101A80001C464FF00043524263EB04038B4208BFF5
:101A9000824230BD30B5041E71F1000404DB4FF00A
:101AA0000044404264EB0101141E73F1000405DBA5
:101AB0001C464FF00043524263EB0403994208BFB7
:101AC000904230BD064C074D06E0E06840F001034F
:101AD00094E8070098471034AC42F6D3FEF70AFBAF
:101AE00060C9000880C900082DE9F04D00231A469E
:101AF0001B1A8A4103DB00200146BDE8F08DC1F3CB
:101B00000A52C1F3130141F480154FF0000BD107C5
:101B100002D100186D41521E0027044640F2FF1109
:101B2000384601EB620A3E468046024600204FF4EA
:101B30008011FFF7E7FBC2197141BB1846EB0100AA
:101B4000B4EB030C75EB000C04D3E41A65EB000551
:101B500017460E46241908F101006D4180463428CD
:101B6000E3DDF91946EB0600091BA84103D24FF04B
:101B7000FF32134601E0002213461BEB070046EB41
:101B80000A51BDE8F04DFFF7B4BE70B58C1810F8DF
:101B9000015B15F0070301D110F8013B2A1106D1B2
:101BA00010F8012B03E010F8016B01F8016B5B1ECC
:101BB000F9D12B0705D40023521E0DD401F8013BA7
:101BC000FAE710F8013BCB1A921C03E013F8015B13
:101BD00001F8015B521EF9D5A142D8D3002070BD97
:101BE00070B5044600688168C943C9071BD1816884
:101BF00021F00101816001F0ABF905460EE001F032
:101C0000A7F9401B022809D9A06A40F01000A06281
:101C1000E06A40F00100E062012070BD2068806849
:101C2000C043C007EBD0002070BD10B50146406A2C
:101C3000826A12F0500F05D0006A026BBDE81040B6
:101C400008461047816A41F4007181620168896821
:101C5000C1F3424107290CD1C16851B9816A21F40D
:101C600080718162816AC90403D4816A41F00101F3
:101C7000816200F019FC10BD10B5406A816A41F024
:101C800040018162C16A41F00401C16200F0EBFCD5
:101C900010BD10B5406A00F0E5FC10BDF8B5002697
:101CA0000446009600688168C943C90727D0816847
:101CB00041F001018160134813490068B0FBF1F065
:101CC00000E0401E00900028FBD101F041F90546DC
:101CD00010E001F03DF9401B02280BD9A06A40F04A
:101CE0001000A062E06A40F00100E06284F8246025
:101CF0000120F8BD20688068C043C007E9D10020FA
:101D0000F8BD0000A800002040420F002DE9FC5F54
:101D1000D84DA88E401C80B2A886DFF85C9340F2B4
:101D20007F31A9F1300809F1180A09F1300B08F1E7
:101D30007806884230D30027AF86E87807287CD021
:101D40006878401CC0B26870012800D96F7008F034
:101D500005FC0024A98E4AF824104FF07E50C64995
:101D600048F82400183926F81470C44841F82400B3
:101D700049F824702046FFF70BFD0022C04BFFF707
:101D80008AFCC04AC04BFFF711FCFFF73EFD4BF841
:101D90002400641C062CDDDB6879BC4F00287CD055
:101DA00001287BD002287AD00428FCD00024EA8CB9
:101DB00036F82400B96C07F077F806EB8400698CDC
:101DC0004088EA8C081A401E80B2B96C07F06CF8A3
:101DD000641C032CEBDB0024A8465AF82410B8F846
:101DE00034004646401AFFF7C5FCDFF88C920546E2
:101DF00049F82400708C4000FFF7C5FC01462846D6
:101E0000FFF7F2FAFFF7EEFC00224FF0804306F0F6
:101E1000E3F84FF0C0429E4BFFF7CBFB768C0546B4
:101E20000F467000FFF7AFFC019059F82410A9F19C
:101E3000180959F82400009000E050E0FFF7A2FADA
:101E40000199FFF7D1FAFFF7CDFC2A463B46FFF791
:101E500009FBFFF7DAFCA9F1180510F1FF4F45F86F
:101E6000240014D3002045F824004F465BF82400DA
:101E70000099FFF787FA47F82400B8F8342085491D
:101E80004AF82420884202DC7C4847F82400701E6F
:101E9000FFF770FC55F8241002E02FE039E047E02E
:101EA000FFF770FAFFF79EFC06F062FFFFF781FC78
:101EB000714D483525F81400641C062C8DDB98F80C
:101EC0000110D8F838004746405C98F80510724E6B
:101ED000052978D2DFE801F0414F60789000287939
:101EE000401CC0B22871062800D92F7128796B498F
:101EF00000EB400001EB4000A86328E70024EA8CD7
:101F000036F81400B96C06F0CFFF641C032CF6DB26
:101F100061E70024698C36F81400EA8C081A401E28
:101F200080B2B96C06F0C0FF641C032CF2DB52E7F0
:101F30000024EA8C36F81400B96C06F0B5FF36F8C8
:101F40001400698CEA8C081A401E80B2B96C06F045
:101F5000ABFF641C032CECDB3DE7002406EB8006A2
:101F600035F81400FA8C316806F09EFF641C032CCF
:101F7000F6DBBDE8FC9F002406EB800635F8140074
:101F8000798CFA8C081A401E80B2316806F08CFFFA
:101F9000641C032CF2DBECE7002406EB800635F82A
:101FA0001400FA8C316806F07FFF35F81400798C44
:101FB000FA8C081A401E80B2316806F075FF641C66
:101FC000032CECDBD5E735E0002406EB800635F882
:101FD0002400FA8C316806F067FF05EB8400798CE9
:101FE0004088FA8C081A401E80B2316806F05CFF07
:101FF000641C032CEBDBBCE70024B86BFA8C005D9F
:1020000006EB800135F81400096806F04DFFB86B47
:102010007A8C2044C07806EB800135F81400101A41
:10202000401EFA8C80B2096806F03EFF641C032C47
:10203000E3DB9EE70024B86BFA8C005D06EB8001C1
:1020400035F82400096806F02FFFB86B7A8C20441D
:10205000C07806EB800105EB84004088101A401E12
:10206000FA8C80B2096806F01FFF641C032CE2DBC7
:102070007FE700000C000020D03700208FC28D4089
:1020800000004240CDCCCCCCCCCCEC3FC4C300084B
:10209000B89E13C00AD7233C0CC20008800300205E
:1020A000FEE70020704700207047000010B50022B6
:1020B0000449054803F06AFB0449034803F060FB48
:1020C000002010BDC4440020C4450020C4430020AB
:1020D00070B50A6800260B4C0D46102A06D2014640
:1020E0002046FFF743F92868265405E04520207074
:1020F00072206070A070E670034803F025FB00209A
:1021000070BD000070030020C44500200A46094944
:1021100010B5D1F81812D1F8141209B1012010BD70
:102120000146044803F032FBBDE81040014803F0CB
:102130006DBB0000C4450020014800F055BC000004
:10214000343A0020014800F04FBC0000783A0020EB
:10215000014800F049BC0000003B0020014800F0AD
:1021600043BC0000BC3A002030B590F84050012438
:10217000AC40C56B6C60046863604368102B0368F7
:1021800003D099600068C26030BD9A600068C16089
:1021900030BD704706490020C8610648016941F01A
:1021A00004010161016941F04001016170470000D3
:1021B000D001002000200240064A0021D1610649DA
:1021C0000A6942F002020A614861086940F0400071
:1021D00008617047D001002000200240044B00221B
:1021E000DA61044A136943F0010313610180704707
:1021F000D00100200020024014490020CA68D30604
:10220000134A04D5D06940F00200D0611020CB6899
:102210005B0705D5D36943F00103D36140F00400A7
:10222000CB69DB0707D0D36943F00403D361CA69E4
:1022300022F00102CA61A0F58072013A01D0C860A3
:102240007047C86920F00100C86170470020024053
:10225000D001002070B5044600F07AFE0546114E0C
:1022600009E0601C07D024B100F072FE401BA042C0
:1022700001D9032070BDF068C007F2D1F068800674
:1022800001D52020F060F068C00605D4F069C007D1
:1022900002D1F068400703D5FFF7AEFF012070BD03
:1022A000002070BD002002402DE9F04100243D4D8A
:1022B0002646052006F0FEFC35F81410814202DAAD
:1022C00025F8146002E0081A25F81400641CF02CAC
:1022D000EFDBEF20032205EB400131F8023C31F83F
:1022E000041C0B441944B1FBF2F125F81010401EF8
:1022F0000228F0DAFF2006F0DDFCFF27782812D252
:102300000E2006F0D7FC0446FF21A02006F0C4FCF6
:1023100035F8142029461044FF2802DD21F81470F6
:1023200001E021F814000024DFF87C8030E0C4EBE9
:102330000410000190FBFCF035F81000C0EB801297
:1023400002EBC010B0FBF7F0C2B29006000E802A7C
:1023500006D967F3070167F30F2160F317410CE01B
:10236000402A04D967F3070160F30F2103E060F30B
:10237000070166F30F2166F317415879C0070ED0A5
:10238000ACEB0400401E80B2DA8C06F08DFD641CBC
:10239000B8F822C043466445C9DBBDE8F081A0B26D
:1023A000F2E70000663400200C000020F8B500239E
:1023B000009390F824201C46012A12D0012280F8B4
:1023C00024204A681F26072A0DD205686F6B521E0B
:1023D00002EB82029640B7430E68964037436F6324
:1023E00019E00220F8BD05680D2A0AD22F6BD21F12
:1023F00002EB82029640B7430E68964037432F6344
:1024000009E0EF6A0D3A02EB82029640B7430E688C
:1024100096403743EF620A68072605680A2A0AD3FE
:10242000EF680A3A02EB42029640B7438E68964044
:102430003743EF6008E02F6902EB42029640B74352
:102440008E68964037432F610A68102A01D0112AFE
:1024500020D1124D0268AA4217D195682D0219D4D5
:10246000956845F4000595600968102912D10C495A
:102470000C4A0968B1FBF2F101EB8101490000E06F
:10248000491E00910029FBD104E0816A41F020013E
:102490008162012380F824401846F8BD00240140E1
:1024A000A800002040420F0070B5624A01689142C6
:1024B00004D16149CA6882F40042CA6000685F4979
:1024C00088427DD15E4CA0785E4E1E2808D0607D8B
:1024D00040F002006075A07C4A1501283CD09AE0CB
:1024E000594900204FF4806536F81020A2F2B4520A
:1024F00041F82020401CA842F6DB53492A4601F54A
:102500008050FDF70FFE2946504804F0BDFC4D49B0
:102510002A46A1F5D17000F095F9207C062805D057
:102520000F2805D0122814D0494803E0494801E09B
:102530004748263006F03CFA04F012FB607D20F09C
:1025400002006075A28CBDE870404349434801F029
:102550008BBB3F481430EDE700210D46084636F8A6
:102560001030A3F5A063B43B00D55B42401C194476
:102570000828F4DB15E08D4200DA0D4606EB400337
:1025800033F8103CA3F5A063B43B00D55B42C91AF5
:1025900036F81030A3F5A063B43B00D55B42194474
:1025A000401C9042E7DB8D4200DA0D46E81705EB50
:1025B0005070C31000212A4D084635F8206000E015
:1025C00036E03144401C89B24028F6DB8809B3F577
:1025D000FA7F03DDC82801D2A07A60B1A17A002079
:1025E00029B1A17A202910D2A17A491CA172617A5D
:1025F00040291BD202E0A07A401C0BE0607A05EB78
:102600008001401C60720B6005E0E18D51B1E18DED
:10261000E184E085A072BDE870400A49A1F5D1705F
:1026200000F010B9E18CE185E084F3E76072E5E742
:1026300070BD00000028014000100140002401404E
:102640000C000020BA030020CC0B0020CC1B002083
:1026500010C40008D6BE0008CC2B00207802002051
:1026600024380020704770472DE9F0414FF00006F4
:10267000040035467DD0A06A002728B9E76284F8B7
:102680002470204600F07EF82046FFF7A9FAA16AE0
:10269000C90600D420B1A06A40F01000A06268E032
:1026A000A16A21F4885141F00201A1626268E169E6
:1026B000E3680A4346EA43010A43A1684FF480767F
:1026C000B14208D0012906D00021D4F814C0BCF1D1
:1026D000010F02D00AE03146F7E7F3B1A36A43F0F5
:1026E0002003A362E36A43F00103E3622368D3F8A3
:1026F00004C02CF4694C4CEA010CC3F804C02168F6
:102700008B68DFF874C003EA0C0313438B60A16885
:10271000B1420BD0012909D00CE0DFF860C0A369F9
:102720000CEB43330B4343F40061DFE7218A0D05D3
:10273000A5F580152168CB6A23F470032B43CB6287
:10274000216889680E4B1940914208D1E762A16A5D
:1027500021F0020141F00101A162BDE8F081A06A0F
:1027600020F0020040F01000A062E06A40F001009A
:10277000E0620120F1E70000FDF7E1FF00E0FFFF6C
:10278000FE0E1FFF30B505460068214C214903238A
:10279000214A85B0A04228D1886940F40070886140
:1027A0008869694600F4007004900120CDE90003B7
:1027B000104600F0E3FA1A4C1848802120600020EF
:1027C0006060C4E90201490021618900C4E9051083
:1027D000E061204600F0B4F918B1852111A004F0A1
:1027E0003DF82C62656205B030BD154CA042FAD1AF
:1027F000886940F4806088618869694600F4806077
:1028000004900620CDE90003104600F0B7FAEAE78D
:10281000002401400010024000080140080002406E
:10282000343A00202E2E2F5372632F73746D33327F
:10283000663178785F68616C5F6D73702E6300003D
:10284000002801402DE9F047894604463B490068CD
:102850003B4F0E1D9046884201D0B84207D13068E8
:1028600010F4702F03D001252846BDE8F08794F8B6
:10287000240001280CD0012084F824002046FFF712
:102880000DFA05004FF0000104D084F82410EBE7A6
:102890000220EAE7A06A40F60162904340F48070AB
:1028A000A0622068B84218D1326812F4702F14D098
:1028B000A06A40F48010A0623068400505D5A06A87
:1028C00020F4005040F48050A062A06AC0040AD5F1
:1028D000E06A20F00600E06206E0A26A22F48012BC
:1028E000A2624068E9E7E16284F82410216A154891
:1028F0008862216A1448C862216A14480863216802
:102900006FF0020008602068816841F48071816086
:10291000216843464A464C31206A00F043F920685A
:102920008168C1F342410729816803D041F48011D5
:10293000816099E741F4A001FAE70000002401401A
:10294000002801402B1C0008931C0008791C00087B
:1029500010B590F821100024022903D004218163CE
:1029600001243DE001680A6822F00E020A60016855
:102970000A6822F001020A601A4A0168914201D1F4
:10298000012121E0174A1432914201D110211BE0AC
:10299000144A2832914201D1891515E0114A3C327E
:1029A000914201D189140FE00E4A5032914202D176
:1029B0004FF4803108E00B4A6432914202D14FF467
:1029C000801101E04FF08071064A083A5160012100
:1029D00080F82110002180F82010416B01B1884758
:1029E000204610BD080002402DE9F05FC16B0B6866
:1029F00001680A68046C4FF0040C0CFA04FC4A4DA0
:102A0000DFF828A14A4E4B4FDFF82CB1DFF82CE15C
:102A10001CEA030F2DD05FEA427C2AD50A68920691
:102A200003D40A6822F004020A600168A94201D1B5
:102A3000042119E0514501D1402115E0B14202D1F4
:102A40004FF4806110E0B94202D14FF480410BE0B5
:102A5000594502D14FF4802106E0714502D14FF46F
:102A6000800101E04FF080612F4A083A5160C16A4D
:102A70003BE04FF0020808FA04F818EA030F4FF0A1
:102A800000094FF0010C35D05FEA827832D50A6830
:102A9000920605D40A6822F00A020A6080F821C072
:102AA0000168A94201D1022119E0514501D120213B
:102AB00015E0B14202D14FF4007110E0B94202D1E9
:102AC0004FF400510BE0594502D14FF4003106E0BC
:102AD000714502D14FF4001101E04FF00071124A2C
:102AE000083A516080F82090816A00291AD0BDE828
:102AF000F05F08470825A5401D4213D0120711D5E5
:102B00000A6822F00E020A6090F84010C26B0CFABC
:102B100001F15160C0F838C080F821C080F82090E1
:102B2000016BE2E7BDE8F09F080002401C00024094
:102B30003000024044000240580002406C00024055
:102B400030B548B302C8154A14230A44B2FBF3F265
:102B50009200C263124A8263022242770B6843F6F4
:102B6000F0729343D0E900242243D0E902452C437C
:102B700022430469224344692243846922431A435D
:102B80000A60002141628162C162016341630122E6
:102B900042770177084630BD012030BDF8FFFDBF08
:102BA0000000024070B5044690F82000002501287E
:102BB0000CD0012084F8200094F821600020012E20
:102BC00006D084F820000225284670BD022070BD82
:102BD000022684F82160A0632068066826F00106BA
:102BE00006602046FFF7C0FAE06A00282068016806
:102BF00002D041F00E0106E021F0040101602068DE
:102C0000016841F00A0101602068016841F001019A
:102C10000160D9E72DE9F047054626480F46012611
:102C2000017E01290FD00121814601762868DFF855
:102C300088804CF25034022808D0A2462046FFF784
:102C400009FBA8B131E00220BDE8F0872046FFF77C
:102C500001FB08BB0120FFF79DFA2046FFF7FAFAB7
:102C6000D8F81010064621F00401C8F810101CE036
:102C70004FF0FF303860AC6811E02046FFF79CFA57
:102C80005046FFF7E7FAD8F81010060021F00201CD
:102C9000C8F8101001D03C6007E004F58064D5E965
:102CA000020100EB8120A042E7D8002189F818102A
:102CB0003046C9E7D00100200020024003480169E6
:102CC00041F08001016100207047000000200240B7
:102CD0002DE9F05F05461D4888460024017E164612
:102CE0001F46012909D00121814601764CF2503A54
:102CF0005046FFF7AFFA18B123E00220BDE8F09F7D
:102D0000012D02D0022D00D00425D346DFF840A0CB
:102D100015E0220130463946FEF7F4FA81B208EB9D
:102D20004400FFF75BFA5846FFF794FADAF81020F0
:102D300022F00102CAF8102018B9641CE4B2AC42B7
:102D4000E7D3002289F81820D8E70000D00100203E
:102D500000200240064900200A69120607D5054AEC
:102D60004A60054A4A600969090600D50120704792
:102D70000020024023016745AB89EFCD2DE9F84FD4
:102D8000DFF8A091002309F1040A0AF1040B1C46A4
:102D90004FF00F080BF1040E01270A68A7403A40D4
:102DA000BA4272D1DFF880C14D68A5EB0C066545CB
:102DB0002BD00DDC032D34D005DC35B3012D19D01B
:102DC000022D2FD11BE0112D16D0122D2AD119E082
:102DD000B6F5881F19D006DCB6F5803F15D0B6F5DC
:102DE000801F1FD111E0B6F5001F0ED0B6F5041FED
:102DF00018D10AE0CB6815E0CB681B1D12E0CB6848
:102E000008330FE0CB680C330CE08B682BB1012B3F
:102E10004FF0080303D0476104E0042302E0076198
:102E200000E00023FF2A01D8064601E000F1040675
:102E30004FEA840501D9A5F12005376808FA05FC99
:102E400027EA0C0703FA05F547EA050737604D68DE
:102E5000ED0060D5354DAE6946F00106AE61AD6955
:102E600024F0030605F001050095314D7719BE6881
:102E7000A5072D0F08FA05FC26EA0C06DFF8B4C0FA
:102E8000604503D14FF0000C17E044E0DFF8A8C024
:102E9000604502D14FF0010C0FE0DFF8A0C06045A3
:102EA00002D14FF0020C08E0DFF894C0604502D177
:102EB0004FF0030C01E04FF0040C0CFA05FC4CEA57
:102EC000060CC7F808C04D68D9F80060ED034D4600
:102ED00001D5164300E096432E604D68DAF8006095
:102EE000AD03554601D5164300E096432E604D686C
:102EF000DBF80060ED025D4601D5164300E0964325
:102F00002E604D68DEF80060AD02754601D51643AF
:102F100000E096432E60641C102CFFF43DAFBDE82A
:102F2000F88F000000040140000011100010024062
:102F30000000014000080140000C01400010014069
:102F4000001401400AB1016170470904FBE7000069
:102F50000148806870470000000000200248816836
:102F6000027811448160704700000020074810B5C6
:102F7000016841F010010160032000F095F8002085
:102F800000F006F800F024F8002010BD00200240F8
:102F900070B50D4D04464FF47A712878B1FBF0F00E
:102FA0000A490968B1FBF0F000F0C9FE48B9102CDD
:102FB00007D200222146501E00F056F800206C6017
:102FC00070BD012070BD000000000020A80000209E
:102FD0001D4808B5816941F001018161806900F0F7
:102FE00001000090032000F05FF8002211466FF00E
:102FF0000B0000F039F8002211466FF00A0000F0D3
:1030000033F8002211466FF0090000F02DF800227D
:103010001146501F00F028F800221146101F00F042
:1030200023F800221146901E00F01EF800221146DF
:10303000501E00F019F80549486820F0E06040F0A3
:103040000070486008BD0000001002400000014010
:1030500000F01F02012191404009800000F1E020B2
:10306000C0F8001170470000F0B40E4B1B68C3F3AA
:103070000223C3F10704042C00D904241D1D072DCD
:1030800001D2002300E0DB1E012606FA04F56D1EC6
:103090000D409D409E40761E164045EA0601F0BC5C
:1030A00001F0C8BC0CED00E0064A00F00701106812
:1030B0004FF6FF03184040EA01200349084310601F
:1030C000704700000CED00E00000FA0510B50C069A
:1030D00005D501F07F0100EB4110283003E000EB43
:1030E000411000F50A7099B232B101228272C1809A
:1030F000190C0181002010BD002282728180F9E745
:10310000704700EB4112D0F85C04D26B02F01CBD9A
:1031100000EB4112D0F85C04D2F83C2202F069BD09
:1031200010B504460A460B0601F07F0004EB40117F
:1031300001D5283101E001F50A710870D009487005
:1031400094F82804012809D0012084F82804206874
:1031500003F049F9002084F8280410BD022010BDB6
:1031600070B50A460446090602F07F0003D504EB59
:103170004011283103E004EB421101F50A710025EA
:103180008D700870D009487094F82804012809D07F
:10319000012084F82804206803F0C9F984F8285431
:1031A000002070BD022070BD01F00F0100EB411046
:1031B000B0F8440280B2704770B504460D460E0662
:1031C00001F07F0004EB401101D5283101E001F549
:1031D0000A710870E80948700A61CB7094F82804F5
:1031E000012809D0012084F82804206802F0D0FFCB
:1031F000002084F8280470BD022070BD70B50D4613
:1032000001F07F0400EB4411C1E98F230022C1F8D3
:10321000442281F8292281F8284201F50A716A06C0
:10322000006803F0DEF9002070BD70B50D4604465D
:10323000090605F07F0003D504EB4011283103E0B7
:1032400004EB451101F50A7101228A700870E80942
:10325000487094F82804012807D084F828242068AE
:1032600003F09AF9680602D006E0022070BD04F26D
:103270002C41206803F059F9002084F8280470BD1F
:1032800070B50D4601F07F0400EB4411C1E90F2336
:1032900000224A64012281F8292001F8284F6A0699
:1032A000006803F09EF9002070BD10B50446006868
:1032B00003F078FA000402D5204601F0CBFB206829
:1032C00003F070FA40050CD5206830F8441F21F453
:1032D00080610180204600F0EBF80021204600F0DC
:1032E000FCF8206803F05EFA400405D5206830F849
:1032F000441F21F480410180206803F053FA8004C8
:1033000005D5206830F8441F21F400510180206861
:1033100003F048FAC00414D5206830F8401F21F0AB
:1033200004010180206830F8401F21F0080101806D
:10333000204600F0CAF8206830F8441F21F480517C
:103340000180206803F02EFA00051AD5206830F8B5
:10335000401F41F008010180206830F8441F21F42B
:1033600000610180206830F8401F41F004010180B5
:10337000206803F017FAC043C00402D5204600F0CD
:10338000E1F8206803F00EFA800508D5206830F8CF
:10339000441F21F400710180204600F09AF8206853
:1033A00003F000FAC00505D5206830F8441F21F469
:1033B0008071018010BD2DE9F04186B004004FF00E
:1033C000000504D094F82904002620B108E001206B
:1033D00006B0BDE8F08184F82864204600F04AF881
:1033E000032084F82904206803F098F804F1100100
:1033F000142288466846FDF7A7FF94E80F0002F004
:10340000F0FF0021206803F0DEF9012704EB4510EE
:1034100080F8297000F8285F8581C67006614661D2
:103420006D1C86610F2DF1D3002104EB411080F853
:10343000296280F82812818680F82B62C0F83862F1
:10344000C0F83C62491CC0F840620F29EDD3142239
:1034500041466846FDF778FF94E80F0003F04FF807
:1034600084F8246084F82974206803F046F800206A
:10347000AEE7000008B500680B49884212D10B483E
:10348000C16941F40001C161C069002200F400007B
:10349000009011461420FFF7E7FDBDE80840142016
:1034A000FFF7D6BD08BD0000005C004000100240E0
:1034B00010B504460121D0F85C0402F083FCD4F876
:1034C0005C04BDE8104002F04CBCD0F85C0402F093
:1034D00067BCD0F85C0402F069BC10B5044690F8F3
:1034E000280401280BD0012084F8280484F8241033
:1034F000206803F06AF9002084F8280410BD022037
:1035000010BDD0F85C2400F22C41104602F06DBCD6
:1035100010B5044690F82804012810D0012084F842
:10352000280401462046FFF7EBFD206802F0E3FF88
:10353000206803F029F9002084F8280410BD022037
:1035400010BD000010B50446D0F85C0402F09AFCEF
:10355000A069002804D00348016841F00601016019
:1035600010BD000010ED00E02DE9F843044600789E
:10357000344FC00752D0F8690025C00008D4F8695C
:1035800040F08050F861F869012500F0805000900B
:103590002D480168C90511D40168804641F4807145
:1035A0000160FFF7D5FC064604E0FFF7D1FC801B65
:1035B000642822D8D8F80000C005F6D5386A10F47F
:1035C000407020D0A18801F4407181421BD0386A3C
:1035D0001E49012220F440700A6000220A6038620D
:1035E000C00710D0FFF7B4FC064641F2883807E068
:1035F000FFF7AEFC811B414502D90320BDE8F883EB
:10360000386A8007F4D5386A616820F4407008434E
:1036100038621DB1F86920F08050F8612078800789
:1036200005D57868A16820F4404008437860207888
:10363000C00605D57868E16820F48000084378600A
:103640000020DBE7001002400070004040044242CE
:103650002DE9F047DFF8348104460E46D8F8000023
:1036600000F00700B0420CD2D8F8001021F007019A
:103670003143C8F80010D8F8000000F00700B0424D
:1036800060D12078424F800705D57868A16820F086
:10369000F000084378602078C00742D060680128B5
:1036A00016D03968022816D0890700294ADA7968C5
:1036B00021F0030101437960FFF74AFC0546606889
:1036C00041F2883101280ED00228894617D024E023
:1036D00039688903E9E78901E7E7FFF739FC411B0E
:1036E000494501D916E089467868C0F38100012870
:1036F000F3D116E0FFF72CFC411B49450AD8786846
:10370000C0F381000228F5D10BE0FFF721FC411B3B
:10371000494502D90320BDE8F087786810F00C0F06
:10372000F3D1D8F80010404601F00701B1420BD99F
:10373000016821F0070131430160006800F00700D3
:10374000B04201D00120E6E72078400705D578682F
:10375000E16820F4E060084378602078000706D52F
:103760007868216920F4605040EAC100786000F078
:103770003BF87968074AC1F30311515CC840064918
:1037800008600020FFF704FC0020C4E7002002408E
:1037900000100240B8C80008A800002001480068D6
:1037A00070470000A80000200448054900684968E7
:1037B000044AC1F30221515CC8407047A8000020B0
:1037C00000100240C8C8000804480549006849685C
:1037D000044AC1F3C221515CC8407047A8000020D0
:1037E00000100240C8C8000812A085B00FC88DE8BC
:1037F0000F0014A0144B006804905968134801F09E
:103800000C02042A10D0082A0ED1C1F38342C90346
:103810001DF802000AD5596804AAC1F34041515C61
:103820000A4A5043B0FBF1F005B0704708494843DD
:10383000FAE7000002030405060708090A0B0C0D4D
:103840000E0F1010010200000010024000127A005A
:1038500000093D002DE9F84F04460078B64DC00739
:1038600047D06868C0F38100012807D06868C0F3BA
:103870008100022809D16868C00306D52868800342
:1038800037D5606800286ED033E06068B0F5803FBF
:103890000BD010B1B0F5A02F11D0286820F48030E3
:1038A0002860286820F4802002E0286840F48030F6
:1038B0002860606888B1FFF74BFB064609E028687E
:1038C00040F480202860F0E7FFF742FB801B64286B
:1038D00073D828688003F7D50BE0FFF739FB06465D
:1038E00004E0FFF735FB801B6428F1D828688003CB
:1038F000F7D42078DFF8448280074FF0010A4FF0B8
:10390000000939D5686810F00C0F07D06868C0F35B
:103910008100022809D16868C00306D4286880079E
:1039200013D5206901281ED10FE02069A8B1C8F87D
:1039300000A0FFF70DFB064604E0FFF709FB801B24
:103940000228C5D828688007F7D52868616920F063
:10395000F80040EAC10028600EE0C8F80090FFF7C8
:10396000F7FA064605E0E5E0FFF7F2FA801B0228C9
:1039700023D828688007F7D4207800072CD5704911
:10398000A069D8B1C1F800A0FFF7E2FA064604E04A
:10399000FFF7DEFA801B02280FD8686A8007F7D588
:1039A00068484FF4FA510068B0FBF1F0009000BF96
:1039B0000098411E0091FAD20EE07CE0C1F8009020
:1039C000FFF7C6FA064604E0FFF7C2FA801B02289A
:1039D00071D8686A8007F7D4207840075BD5E8691A
:1039E0000027C00008D4E86940F08050E861E86929
:1039F000012700F08050009053480168C90511D498
:103A00000168834641F480710160FFF7A1FA064620
:103A100004E0FFF79DFA801B64284CD8DBF8000017
:103A2000C005F6D5E06801280AD008B1052813D0F2
:103A3000286A20F001002862286A20F0040002E0D1
:103A4000286A40F001002862E06841F2883B88B1B2
:103A5000FFF77EFA064609E0286A40F00400286273
:103A6000EEE7FFF775FA811B59455BD8286A800796
:103A7000F7D50BE0FFF76CFA064604E0FFF768FAAB
:103A8000811B59454ED8286A8007F7D41FB1E869D1
:103A900020F08050E861E069A8B36968C1F3810152
:103AA000022947D00228484606D0C8F86000FFF730
:103AB0004FFA044639E035E04746C8F86000FFF7A2
:103AC00047FA064604E0FFF743FA801B022829D88C
:103AD00028688001F7D4206AB0F5803F05D1686876
:103AE000A16820F4003008436860D4E90801084365
:103AF000696821F4741108436860C7F860A0FFF793
:103B000027FA044605E013E0FFF722FA001B02281B
:103B100008D828688001F7D50AE0FFF719FA001BDA
:103B2000022802D90320BDE8F88F28688001F4D468
:103B30000020F8E70120F6E70010024000004242B2
:103B400080044242A800002000700040704770B519
:103B5000040005D00025A56294F8510010B104E0DE
:103B6000012070BD204600F033F8022084F8510097
:103B70002068016821F040010160D4E90101084397
:103B8000D4E903121143084361690843218B01F40E
:103B900000710843E1690843216A0843A16A0843A8
:103BA00021680860A069042101EA1040616A0843A5
:103BB000216848602168E06A08612068C16921F4D1
:103BC0000061C1616565012084F85100002070BD6D
:103BD00030B505460068184985B0884229D1174894
:103BE000816941F4805181618069694600F48050A7
:103BF0000490A02000900220019003200390104820
:103C0000FFF7BCF8104C0F48002120601020C4E9D9
:103C100001018020C4E903016161A1612046E161E5
:103C2000FEF78EFF18B1F12108A002F017FEAC6478
:103C3000656205B030BD0000003001400010024058
:103C40000008014030000240783A00202E2E2F5309
:103C500072632F73746D3332663178785F68616C8C
:103C60005F6D73702E63000070B5044690F85000CD
:103C70000026012809D0012084F8500094F8510052
:103C80000025012803D002263FE0022070BD89B143
:103C900082B1032084F8510065652163A286E28623
:103CA000A56365642564A587E587A068B0F5004F26
:103CB00002D006E0012628E02068016841F4804136
:103CC0000160A16C1348C862A16C13488862A16CA2
:103CD00012480863A06C4563E38E2268216B0C32A6
:103CE000A06CFEF75FFF20680168490603D40168F5
:103CF00041F0400101602068416841F020014160CD
:103D00002068416841F00201416084F8505030461B
:103D100070BD00008B4F0008954F0008694F0008E8
:103D2000704770474FF0E0210428086903D020F065
:103D300004000861704740F00400FAE7704710B5CE
:103D4000401EB0F1807F01D3012010BD4FF0E02470
:103D500060610F21601700F06DFE0020A061072058
:103D60002061002010BD10B5FFF7E8FF10BD30B591
:103D700090F83C20012A20D0012380F83C30022218
:103D800080F83D200268546824F070045460026892
:103D900054680D682C4354600268946824F08004D1
:103DA00094600268946849680C43946080F83D30E0
:103DB000002180F83C10084630BD022030BD10B50F
:103DC000040003D094F83D0010B107E0012010BDBD
:103DD000002084F83C00204600F00CF8022084F813
:103DE0003D00211D206801F0D7F9012084F83D0035
:103DF000002010BD08B500680649884208D1064871
:103E0000C16941F00201C161C06900F00200009087
:103E100008BD000000040040001002400168CA68AC
:103E200042F00102CA600068016841F001010160CE
:103E300000207047022180F83D1001680A6A41F2B3
:103E400011131A4207D10A6A9B101A4203D10A6859
:103E500022F001020A60012180F83D100020704725
:103E600070B5044690F83C00012817D0012584F86D
:103E70003C50022084F83D002068826822F07702DE
:103E800022F47F4282600868502836D00DDC20285A
:103E900058D005DC80B3102840D150E0022070BD1E
:103EA000302852D0402839D13EE060282DD07028EB
:103EB0000BD0B0F5805F03D0B0F5005F2ED110E0DD
:103EC0002068816821F0070109E0CB68D1E9012170
:103ED000206801F097F92068816841F077018160DE
:103EE0001CE0CB68D1E90121206801F08BF9206842
:103EF000816841F48041F2E71EE0CA6849682068A1
:103F000001F092F95021206806E0CA6849682068EB
:103F100001F09BF96021206801F07EF984F83D50A2
:103F2000002084F83C0070BDCA684968206801F030
:103F30007BF940212068EFE700212068ECE71021A1
:103F40002068E9E720212068E6E730212068E3E7E0
:103F50007047000070B5026804461068D168536964
:103F600010F00F0F50D003F0010501F490763543A7
:103F70005DD0C20705D0CA0503D5E26B42F001024D
:103F8000E263420705D5DA0703D0E26B42F0020292
:103F9000E263820705D5DA0703D0E26B42F0040240
:103FA000E263020705D5DA0703D0E26B42F00802AC
:103FB000E263E26B002A33D0800604D5880602D57E
:103FC000204601F0D7F920684069E16BC0F380100A
:103FD000090700D428B3204601F0B5F920684169EB
:103FE00049061AD5416921F040014161606BA0B1D9
:103FF0001B494163606BFEF7ABFC002810D0606B7F
:10400000416BBDE870400847830610D58B060ED57E
:104010002046BDE8704001F0ADB92046FFF798FF9B
:1040200070BD2046FFF794FF0020E06370BD0306DB
:1040300006D50B0604D52046BDE8704001F09EBAB7
:104040004006F3D54806F1D5D168204621F040015D
:10405000D160202184F8391000F05CFB70BD0000B5
:104060006F52000870B5040004D094F839000025A0
:1040700010B106E0012070BD84F83850204600F0F1
:1040800023F8242084F839002068C16821F4005105
:10409000C160204601F0BAF92068016921F490411D
:1040A00001612068416921F02A0141612068C168ED
:1040B00041F40051C160E563202084F8390084F8A0
:1040C0003A00002070BD0000F0B5044600682C499D
:1040D00085B0884252D12B48816941F48041816189
:1040E0008069294E00F4804004904FF400700090E5
:1040F000022001900320039069463046FEF73EFE01
:1041000030150025CDE900050120029069463046B2
:10411000FEF734FE1E4E1D488027C6E90005C6E99D
:10412000025735617561B5613046F561FEF708FDEE
:1041300020B140F25F1117A002F090FB6663746239
:1041400012481B4E143801C61020A1C6184846F864
:1041500010597561B561F561FEF7F2FC20B140F2CE
:104160006F110CA002F07AFB266300221146252075
:104170007462FEF779FF2520FEF76AFF05B0F0BDF7
:104180000038014000100240000801405800024081
:10419000BC3A00202E2E2F5372632F73746D33326E
:1041A000663178785F68616C5F6D73702E630000B4
:1041B000003B002037B5044690F83A0082B0134621
:1041C00020283AD1039AAAB3A3B394F8380001285F
:1041D00033D0012084F83800A262A3850025E5636E
:1041E000222084F83A00616B15488862616B15489B
:1041F000C862616B14480863606B45632168606B3B
:10420000091DFEF7CFFC206801684168009184F821
:104210003850C16841F48071C1602068416941F043
:10422000010141612068416941F040014161002084
:1042300005B030BDFFE70120FAE70220F8E70000F3
:10424000C9520008055300087F5200082DE9F05FAD
:10425000DFF8EC93002609F5BA783546F94FD5E139
:10426000F948815DF94AF87D1154401CC0B2F875D7
:104270002E297DD1092853D31044093802F094FC2B
:10428000F1480222F249A03800F004FA387E0028F2
:1042900046D00A2844D2DFE800F043F2F1E1C7B982
:1042A000A94405F0388E20F4004038861E20B870EE
:1042B00097F83600F870788D20B9F88D10B1F88D28
:1042C0007885FD85022003F0BDFBDFF874A3002490
:1042D0000AF1180A4FF07E5BB98E4AF82410D849CB
:1042E000303901F1780041F824B020F814506038DA
:1042F00040F8245049F824502046FDF749FA00229E
:10430000D44BFDF7C8F9D44AD44BFDF74FF9FDF76C
:104310007CFACB49303141F82400641C062CDBDBED
:1043200072E1388E20F400403886F88E0A21B0FB06
:10433000F1F201FB1202FA70B0FBF1F0B870BD8629
:10434000F8783871F87800EB4001BF48303800EB5E
:104350004100B863B878152802D0B878162802D181
:104360004FF40060B886F88C18B1788D30B107E052
:104370004BE1F88D40B1F88DF88405E0F88D788533
:10438000388D08B9F88D3885FD85002003F05AFB7B
:1043900006F0E4F8DFF8A8B200240BF1180B0BF1DB
:1043A000180AB98E4BF82410A5494FF07E503039C9
:1043B00041F8240001F1780020F81450603840F8EA
:1043C000245049F824502046FDF7E2F90022A14B81
:1043D000FDF761F9A04AA14BFDF7E8F8FDF715FAE2
:1043E0004AF82400641C062CDBDB0DE1B8781F289A
:1043F00006D0B8781E28F88E06D28008F88403E12B
:10440000F88E8008788599E03885FDE0B8781E2818
:1044100005D097F83610924809310170F4E0F88E13
:10442000C0F1FA00B885EFE0388E20F400403886FD
:104430001F20B870F88E602800D38020B871787D76
:1044400040F001007875788D20B9F88D10B1F88DA5
:104450007885FD85002003F0F5FAD5E0F88E801E02
:104460000A2809D2DFE800F0050C2E6F71747D7FF9
:1044700091A1BD8600F082F9C6E0B4E09AE0AFE019
:10448000B8781F2808D0B8781E28F88D0ED0A8B1AB
:10449000F88DF884FD85B7E0F88D18B1F88D788532
:1044A000FD854BE0788DF8857D8547E010B1F88D6E
:1044B0003885EFE7388DF8853D85A5E0F88CF885DF
:1044C000FD84A1E0B87818281BD20020414600E006
:1044D000401C00EB40028A5CFF2A02D05028F7DB28
:1044E00092E050280CDAFA78BB7800EB400002EB3F
:1044F000C3020A545A4A1278404442707979817052
:1045000082E0B8781F287FD14F4A0020303AF978EE
:1045100001EB410102EB410101444B78F97801EBD9
:10452000410102EB41010B54401C0528EFDBB97936
:10453000F87800EB400002EB40004171787D40F0DC
:104540000100787560E0BD745EE00120B8745BE046
:10455000388E20F4004038861F20B8708020B87153
:10456000ECE700201EE03848E038FFF763FC04F079
:1045700049FD3C4800F0E2F83348303800F01EFCBA
:104580003148E038FFF74AFC3EE00020FF22434676
:1045900000EB4001401C5A54194450284A708A705C
:1045A000F6DB012000F02CFC2EE02F48B86409F067
:1045B00027FD29E0F88E0028388E0ED040F4004008
:1045C00038867D8698F80000C208BA7000F00700AF
:1045D000F87098F80200787116E020F4004012E0BC
:1045E00097F83600F7E7B8781E2823D01F283DD06B
:1045F000388E00F400403886F88E398EC0EB0010FB
:1046000001EB0010F0303886FD75761CB87D8642CF
:10461000FFF626AEF87D092188B1092800D9FD757D
:10462000F87DB0FBF1F201FB120018B3C0F10900F4
:10463000B87522E097F83600801C3872E4E71BE07A
:10464000D03700200C000020B003002046360020A8
:10465000CCBE000800004240CDCCCCCCCCCCEC3F52
:10466000610000204439002001E0000897F836007E
:10467000F87163E7B97500E0B975BA7DBDE8F05F20
:104680000249A1F1A000FFF795BD0000B003002092
:1046900070470000F7B5044690F83900202831D162
:1046A000019969B362B394F8380001282AD0012037
:1046B00084F838002162A284E2840025E563212089
:1046C00084F83900236B10489862236B0F48D86236
:1046D000236B0F481863206B134645632668206BD5
:1046E000321DFEF75FFA21686FF04000086084F821
:1046F00038502068416941F0800141610020FEBDD1
:104700000120FEBD0220FEBD0F5300083D530008EE
:104710007F52000870477047FEE70000064A0021FC
:1047200002EB8103D3F8003840F82130491C89B2EC
:104730003C29F5D30120704700F0000870B505460C
:10474000012000F05DFB09F076FC0B4E002404CD47
:1047500006EB840100230220FEF7BAFA18B109F033
:1047600064FC002070BD641CA4B23C2CEFD309F0A3
:104770005CFC012070BD000000F8000810B40020AF
:10478000204A014622F81010401C0628FADB1E4978
:104790000F221223488C142478281DD008DC1E28F0
:1047A00010D03C2810D0482810D05A2808D111E049
:1047B000902815D0962815D0B42815D0D82815D013
:1047C0001E2004E03C2002E0482006E05A204884F5
:1047D0000A740EE078200AE0902048840B7408E008
:1047E0009620F4E7B420F8E7D820F6E7F0204884D4
:1047F0000C740A7C80B2B0FBF2F24A7410BC06F072
:1048000007BC0000183800200C000020FEB512493B
:10481000002405468C60CC600E484C61086001267F
:104820000E614FF400204C60C8610846FDF71CFF84
:1048300000B1FEE7280401D5009400E00096CDE920
:10484000016469460448FDF7B1FD002800D0FEE789
:10485000FEBD000000240140180200203EB51448AF
:10486000124901240160891581600021C16002257F
:10487000C0E904544FF460224160C0E90642FDF7EC
:10488000F3FE00B1FEE700940194694608480294E3
:10489000FDF78CFD00B1FEE70095694604480195DF
:1048A000FDF784FD002800D0FEE73EBD0028014052
:1048B0004802002070B5274886B0816941F0100198
:1048C0008161816901F010010491816941F0200149
:1048D0008161816901F020010491816941F0040145
:1048E0008161816901F004010491816941F008014D
:1048F00081618069184D00F008004FF46044049015
:10490000002221462846FEF71DFB009402200124C8
:104910000390694601942846FEF730FA00250F4EB1
:10492000CDE90045694630460295FEF727FAE003D7
:10493000CDE90005694602940948FEF71FFA4FF4D5
:104940007E70CDE90005694602943046FEF716FAFE
:1049500006B070BD0010024000100140000C014084
:10496000000801400E4810B50C4901604FF48271F7
:10497000416000218160C1604FF400720161C0E9B3
:1049800005121022C0E90721416281620A21C16239
:10499000FFF7DDF8002800D0FEE710BD0030014031
:1049A0007802002010B5134886B011490024C0E9F0
:1049B000001440F26161C0E9024104618461FFF7C3
:1049C000FEF900B1FEE74FF48050009069460948B7
:1049D000FFF746FA00B1FEE72020CDE9040404A960
:1049E0000448FFF7C4F9002800D0FEE706B010BD68
:1049F00000040040D002002010B5002208490948F8
:104A000001F06DF80849074801F069FA07490548BF
:104A100000F0AEFEBDE81040024801F0ADBA000063
:104A200064000020C4450020880100209800002078
:104A3000FEE770470907090E002806DA00F00F00AC
:104A400000F1E02080F8141D704700F1E02080F8AC
:104A5000001470472DE9FC5F04460020ADF800000B
:104A6000ADF8040040F68F7B4FF006094FF0020AC4
:104A70004FF4806884E1BDF8001011F00F0628D0D3
:104A800030F82610ADF80410BDF80410090475D5EF
:104A900030F8261001EA0B0120F8261004EB461529
:104AA00095F8320205F50A750028206867D0297844
:104AB00030F82120B0F8503052047CD50AEBC10107
:104AC0005A1808EB4201415A8F05BF0D74D0EA888D
:104AD000C7E0BDF80010C9062CD4018848F60F7253
:104AE00011400180206804F12805B0F850202B788F
:104AF0000AEBC3010A4408EB4201405AC0F3090023
:104B00006064E16B0844E06300212046FEF7F9FA97
:104B100094F824000028ADD0A8690028AAD194F800
:104B20002400216840F08000A1F84C00002084F8A7
:104B3000240025E1018804F50A75ADF80410BDF8DC
:104B4000041009051CD5B0F850202B7809EBC301DF
:104B50000A4408EB4201405A04F22C41C0F3090315
:104B6000EB61AA88206801F020FE2068018801EA34
:104B70000B0101802046FEF7C4FC01E195E054E002
:104B8000BDF804100904D4D5018801EA0B010180A5
:104B90002068B0F850202B78464609EBC301114439
:104BA00008EB4101405A83059B0DEB610BD0AA88AD
:104BB0006969206801E04AE057E001F0F6FDE96923
:104BC00068690844686100212046FEF7A1FA206860
:104BD000B0F85010891D06EB4101421828693E28A3
:104BE0000CD9C0F34F11C00601D1491E89B24FF64E
:104BF000FF7000EA812040F4004009E0C0F34F015B
:104C0000C00701D0491C89B24FF6FF7000EA81202D
:104C10001060206801884BF68F72114081F440517A
:104C200048F2800211430180AAE0B0F850202B78AE
:104C300009EBC3010A4408EB4201415A8F05BF0D3D
:104C40001FD0AA883B46696901F0AFFD19E009EB66
:104C5000C1015A1808EB4201415A8F05BF0D04D01B
:104C60002A893B46696901F0A0FD2978206830F85F
:104C7000212048F68F731A4048F2C0031A4320F8E7
:104C80002120E8693844E8616869C2196A61AB6942
:104C900013B12869B84204D929782046FEF738FABA
:104CA00003E029782046FEF7A9FABDF804000006C3
:104CB00066D5206804EB461530F8261048F60F72CA
:104CC000114020F8261095F8320028350028206879
:104CD00012D0297830F82120B0F8503052061ED575
:104CE0000AEBC1015A1808EB4201405A83059B0D9B
:104CF000EB6123D0EA881DE0B0F850202B780AEB56
:104D0000C3010A4408EB4201405A83059B0DEB6145
:104D100020D0AA886969206801F05DFD1AE009EBDE
:104D2000C1015A1808EB4201405A83059B0DEB6103
:104D300004D02A896969206801F04DFD297820682E
:104D400030F8212048F68F731A404CF280031A4342
:104D500020F821202068B0F850202B780AEBC301FE
:104D60000A4408EB4201405AC0F30900E86169694E
:104D70000A186A612978AB69204663B1FEF780FAA8
:104D80002068B0F84410ADF8001009043FF573AE88
:104D90000020BDE8FC9FFEF7B4F9F1E7064A0021C8
:104DA00002EB8103D3F8003440F82130491C89B26A
:104DB0000C29F5D30120704700F0000870B50546B6
:104DC000022000F01DF809F036F90B4E002404CD46
:104DD00006EB840100230220FDF77AFF18B109F0E9
:104DE00024F9002070BD641CA4B20C2CEFD309F090
:104DF0001CF9012070BD000000F40008704700009D
:104E000010B586B0044609F016F90121039101910D
:104E1000012C03D0022C03D00C4802E00C4800E027
:104E20000C4802900020009004A96846FDF7F2FEAD
:104E300010B109F0FAF804E009F0F7F80498401C02
:104E400002D0002006B010BD0120FBE700FC0008E6
:104E500000F8000800F4000810B51021164C0A46AE
:104E600004EB41135208D3F8003C5B1C01D0114401
:104E700000E0891A89B2002AF2D104EB4112D2F87B
:104E8000002C521C01D1491E89B2202901D30020D7
:104E900010BD0022490101EB82032344D3F8003CFA
:104EA00040F82230521C92B2082AF4D30068401C09
:104EB000EED0012010BD000000F000082DE9F04107
:104EC00010241F4A0646214602EB44104908D0F838
:104ED000000C401C24D0601884B20029F4D102EBED
:104EE0004410D0F8000C401C01D0641CA4B2202C4B
:104EF00003D30020FFF784FF0024FDF72BFF0025DC
:104F0000104F640104EB850004CEC1190023022078
:104F1000FDF7DEFE58B1FDF7D1FE0020BDE8F081BF
:104F200011B1601A84B2CFE7641EA4B2D7E76D1C3A
:104F3000ADB2082DE6D309F078F80120EEE70000C5
:104F400000F0000800FC000838B50B46009204464B
:104F50000022802100F04BF8002804D0606D40F062
:104F600020006065032038BD10B5406A01684A68BA
:104F700022F003024A60416D41F0100141650121B8
:104F800080F85110FEF7E2FD10BD10B5406AFEF743
:104F9000C8FE10BD38B50546446AFDF7D9FF024684
:104FA0002868006880061ED42068416821F002014C
:104FB000416064212046FFF7C7FF18B1606D40F0E3
:104FC00020006065A068002118B92068C268806868
:104FD0000090E186012084F85100606D18B12046F0
:104FE000FEF7B4FD38BD2046FEF79AFE38BD2DE928
:104FF000F0411D4617460E460446DDF8188035E0A0
:10500000681C33D02DB1FDF7A3FFA0EB0800A84228
:105010002CD32068416821F0E00141606068B0F560
:10502000827F0BD1A068B0F5004F02D0B0F5806F41
:1050300004D12068016821F040010160A06AB0F548
:10504000005F0AD1206801684DF6FF7211400160CF
:105050002068016841F400510160012084F851008A
:10506000002084F850000320BDE8F08120688068AB
:1050700036EA000004D00020B842C1D10020F3E796
:105080000120F9E77047000010B5FDF767FFFEF754
:105090006AFE0D490878401CC0B20870CB78002227
:1050A000984204D90A70887840F0010088704878E6
:1050B000401CC0B24870122804D94A70887840F069
:1050C0000200887010BD00005E00002030B593B073
:1050D00001210804CDE90010002402940225049166
:1050E000CDE907504FF4E01009906846FEF7B2FB97
:1050F00000B1FEE70F20CDE90A054FF48060CDE94D
:105100000C404FF4A0600E9002210AA8FEF7A0FA0E
:1051100000B1FEE712200F904FF48040CDE911045A
:105120000FA8FEF721FA00B1FEE7FEF737FB4FF4B8
:105130007A71B0FBF1F0FEF702FE0420FEF7F2FDFB
:1051400000221146501EFDF78FFF13B030BD000046
:105150000D48016841F00101016041680B4A1140AE
:10516000416001680A4A11400160016821F4802110
:105170000160416821F4FE0141604FF41F0181602C
:105180000449C00308607047001002400000FFF8A7
:10519000FFFFF6FE08ED00E0F0B50268164C174D73
:1051A000174E4FF08047A04205D0B84203D0A84226
:1051B00001D0B04203D122F070034A681A43A042E2
:1051C00005D0B84203D0A84201D0B04203D122F4A6
:1051D0004073CA681A434B6922F08002134303608C
:1051E0008A68C2620A688262A04201D109690163C9
:1051F00001214161F0BD0000002C0140000400408D
:105200000008004010B5846842EA032224F47F4479
:105210000A432243826010BD826822F070020A4372
:1052200042F007018160704710B5046A036A23F0F9
:1052300001030362836923F0F00343EA021324F0BD
:105240000A020A438361026210BD10B5036A23F0AB
:10525000100303628469036A24F4704444EA02324E
:1052600023F0A00343EA01118261016210BD10B571
:10527000406A0021C185C184FEF76AFE10BD70B589
:10528000446A2068406994F83910C0F3C0100025C2
:10529000212904D118B1E584204600F062F8206885
:1052A000406994F83A10C0F38010222904D118B153
:1052B000E585204600F047F8E06B40F01000E06321
:1052C0002046FEF745FE70BD10B50146406A0968EC
:1052D0000968890613D40021C1850168CA6822F4CF
:1052E0008072CA6001684A6922F001024A6101685D
:1052F0004A6922F040024A61202180F83A10FEF704
:10530000A5FF10BD10B5406AFFF7C2F910BD10B57A
:105310000146406A0968096889060CD40021C184E5
:1053200001684A6922F080024A610068C16841F060
:105330004001C16010BDFFF7EDF910BD10B5406A26
:10534000FFF7E9F910BD0168CA6822F49072CA60DB
:1053500001684A6922F001024A61202180F83A106E
:1053600070470168CA6822F0C002CA60202180F834
:105370003910704710B590F83A10222901D0022058
:1053800010BD8168B1F5805F11D001690029016805
:105390001FD0496801F07F03816A4A1C82620B704A
:1053A000C18D491E0904090CC18518D02BE0026982
:1053B000816A002A0268526805D0D2B20A80816AE6
:1053C000491C8162ECE7C2F308020A80816A891CE9
:1053D000F7E74A68816A4B1C83620A70E0E701685C
:1053E000CA6822F02002CA600168CA6822F480728A
:1053F000CA6001684A6922F001024A61202180F8EE
:105400003A10FEF723FF002010BD00002DE9F04107
:10541000044600680169E26821F4405111430161CA
:10542000A16820690143606901432068C26841F2B4
:105430000C639A430A43C26020684169A26921F45F
:105440004071114341614C492068642632278842EB
:105450003CD1FEF7B9F900EBC00101EB0010616827
:105460008900B0FBF1F5FEF7AFF900EBC00101EBED
:1054700000106168B8468900B0FBF1F0B0FBF6F0AF
:105480006FF01801484305EB800107EB0110B0FBFA
:10549000F6F000F0F005FEF797F900EBC00101EB24
:1054A000001061688900B0FBF1F0B0FBF6F005EB8D
:1054B0000015FEF789F900EBC00101EB00106168EF
:1054C0008900B0FBF1F7FEF77FF93BE0FEF76CF9DE
:1054D00000EBC00101EB001061688900B0FBF1F541
:1054E000FEF762F900EBC00101EB00106168B846FD
:1054F0008900B0FBF1F0B0FBF6F06FF01801484303
:1055000005EB800107EB0110B0FBF6F000F0F005B1
:10551000FEF74AF900EBC00101EB00106168890059
:10552000B0FBF1F0B0FBF6F005EB0015FEF73CF92F
:1055300000EBC00101EB001061688900B0FBF1F7DE
:10554000FEF732F900EBC00101EB00106168890041
:10555000B0FBF1F0B0FBF6F06FF01801484307EB39
:10556000800108EB0110B0FBF6F0216800F00F009D
:1055700028448860BDE8F0810038014090F8391077
:10558000212901D0022070478168B1F5805F016A4E
:105590000BD04A1C0262026809785160C18C491E16
:1055A0000904090CC1840ED017E009880268C1F310
:1055B0000801516001690029016A02D0491C016299
:1055C000ECE7891CFBE70168CA6822F08002CA6028
:1055D0000068C16841F04001C160002070470000D0
:1055E0000148FEF7B7BC000010030020D0F81802F5
:1055F00020B10021C0F814120846704702207047FD
:1056000070B50546D0F8184200F028FBC4F80C022B
:10561000D5F8180248B1D5F81C12D4F80402CA68AB
:1056200004F503719047002070BD022070BD70B575
:1056300004460025812100F077FA0121204600F080
:1056400073FA8221204600F06FFAD4F8180250B1A4
:10565000D4F81C0204F5067440688047206800F006
:1056600091FD00202060284670BD10B5D0E986412C
:1056700059B194F80002FF2807D08B6894F80122F2
:1056800021469847FF2084F80002002010BD00004A
:105690000A21018000487047B000002043210180AA
:1056A00000487047000100204321018000487047F6
:1056B000BC000020432101800048704744010020C5
:1056C0002DE9F0410546007C00264FF4007770B3C9
:1056D000402302228121284600F020FB40230222A1
:1056E0000121284600F01AFB0823032282212846C4
:1056F00000F014FB4FF4077000F046FDC5F81802E7
:10570000F0B10446D5F81C02006880470021C4F8B7
:105710001412C4F81812287CD4F8042290B1402343
:105720000121284600F00DFB3046BDE8F081FFE77F
:105730003B4602228121284600F0F0FA3B46CEE7A4
:105740000126F1E73B46EBE710B5D0F8181269B136
:10575000027C002AD1F8042205D04023012100F068
:10576000F0FA002010BD4FF40073F7E7022010BDDF
:1057700002460220002902D00020C2F81C12704705
:10578000D0F81802C0F8041200207047D0F81802B0
:10579000C0F81022C0F808120020704770B5064605
:1057A000D0F8185208780C4610F0600121D020295A
:1057B00027D1E288AAB10006607807D5D6F81C1276
:1057C0008B6829469847E288294617E085F8000249
:1057D000A07985F80102E2882946304600F050F8A9
:1057E0000FE0D6F81C12607800228B68214698479B
:1057F00007E060780A2804D103490122304600F00E
:1058000059F8002070BD0000AC00002010B5D0F8A1
:10581000181289B1D1F814220AB1012010BD012259
:10582000C1F81422B1F8102293B2D1F808228121D4
:1058300000F031FB002010BD022010BD10B5D0F8E3
:10584000142252689047002010BD134610B50A4636
:10585000002100F076FA002010BD134610B50A466C
:10586000002100F018FB002010BD10B50446802177
:1058700000F0E8FA2046BDE81040002100F0E2BA4E
:1058800010B50323C0F80821C0F8F431C0F80C218A
:1058900013460A46002100F054FA002010BD10B54E
:1058A00005210023C0F8F4111A46194600F049FA00
:1058B000002010BD10B502238261C0F8F431C2612E
:1058C00013460A46002100F0E6FA002010BD10B58C
:1058D00004210023C0F8F4111A46194600F0DBFA3F
:1058E000002010BD10B50A46024903A000F0D4F80C
:1058F000004810BD443B002043444320436F6E6684
:10590000696700001220088000487047840000206A
:1059100010B50A46024903A000F0BEF8004810BDC9
:10592000443B002043444320496E746572666163C2
:1059300065000000042008800048704780000020B7
:1059400010B50A46024903A000F0A6F8004810BDB1
:10595000443B002053544D6963726F656C656374FA
:10596000726F6E696373000010B50A46024903A0A6
:1059700000F092F8004810BD443B002053544D33D2
:1059800032205669727475616C20436F6D506F726E
:105990007400000010B50A46024903A000F07CF82C
:1059A000004810BD443B00203030303030303030C3
:1059B0003030314100000000F8B5044648880D46FB
:1059C000010A08294BD2DFE801F04A0409174A4AC4
:1059D0004048D4F81012207C0A6832E0207C02266D
:1059E0000028D4F8140205D0C16A684688470146E9
:1059F000467041E0816AF8E7C0B206282FD2DFE89E
:105A000000F003080D12171CD4F81012207C4A680D
:105A100017E0D4F81012207C8A6812E0D4F8101233
:105A2000207CCA680DE0D4F81012207C0A6908E0D6
:105A3000D4F81012207C4A6903E0D4F81012207CBC
:105A40008A6969469047014616E0207C38B9D4F847
:105A50001402416B68468847F5E7207C20B129464F
:105A60002046FFF702FFF8BDD4F81402016B684628
:105A70008847014607204870BDF800000028F2D092
:105A8000EA88002AEFD0824200D90246ADF8002011
:105A90002046FFF70FFFF8BD70B5002300281DD08A
:105AA0000446002502E06D1CEDB2641C2678002E31
:105AB000F9D1022404EB45041480CC545B1C03226E
:105AC000CA5400245B1C06E0CA545B1CDAB28C5436
:105AD000521CD3B2401C0278002AF5D170BD10B51B
